:020000040800F2
:1000000000040020C10300080105000801050008E4
:1000100001050008010500080105000801050008A8
:100020000105000801050008010500083105000868
:100030000105000801050008010500081106000877
:100040000105000801050008010500080105000878
:100050000105000801050008010500080105000868
:100060000105000801050008010500080105000858
:100070000105000801050008010500080105000848
:100080000105000801050008010500080105000838
:100090000105000801050008010500080105000828
:1000A0000105000801050008010500080105000818
:1000B0000105000801050008B170000801050008ED
:1000C00001050008010500080105000801050008F8
:1000D00001050008010500080105000801050008E8
:1000E00001050008010500080105000801050008D8
:1000F00001050008010500080105000801050008C8
:1001000001050008010500080105000801050008B7
:1001100001050008010500080105000801050008A7
:100120000105000801050008010500080105000897
:1001300001050008716900080105000801050008B3
:100140000105000801050008010500080105000877
:10015000010500080105000801050008C17200083A
:100160000105000801050008010500080105000857
:100170000105000801050008010500080105000847
:100180000105000801050008010500080105000837
:100190000105000801050008010500080105000827
:0C01A00001050008010500080105000829
:1001B00000B583B006F0DCF800F09AFA43F2706004
:1001C00040F6C401C2F20000C2F2000106F0C0F91C
:1001D00043F28460C2F20000002106F049FA0024D4
:1001E00047F638104FF2B1030094C0F600034FF405
:1001F000A8714022C2F2000000F0E2FC43F200705D
:1002000047F251530094C0F600034FF400714122AD
:10021000C2F2000000F0D4FC47F268404EF6917341
:100220000094C2F20000C0F600034FF49A6141222C
:100230004FF4006400F0C4FCC4F2020403E04FF485
:10024000FA7000F03DFD23699B04F8D443F284600A
:10025000C2F2000002F03CF9F1E700BFAFF300800A
:10026000844641EA000313F003036DD1403A41D3C1
:1002700051F8043B40F8043B51F8043B40F8043B80
:1002800051F8043B40F8043B51F8043B40F8043B70
:1002900051F8043B40F8043B51F8043B40F8043B60
:1002A00051F8043B40F8043B51F8043B40F8043B50
:1002B00051F8043B40F8043B51F8043B40F8043B40
:1002C00051F8043B40F8043B51F8043B40F8043B30
:1002D00051F8043B40F8043B51F8043B40F8043B20
:1002E00051F8043B40F8043B51F8043B40F8043B10
:1002F000403ABDD2303211D351F8043B40F8043BB0
:1003000051F8043B40F8043B51F8043B40F8043BEF
:1003100051F8043B40F8043B103AEDD20C3205D3BF
:1003200051F8043B40F8043B043AF9D2043208D0B7
:10033000D2071CBF11F8013B00F8013B01D30B8829
:1003400003806046704700BF082A13D38B078DD007
:1003500010F003038AD0C3F10403D21ADB071CBFD9
:1003600011F8013B00F8013B80D331F8023B20F843
:10037000023B7BE7043AD9D3013A11F8013B00F87C
:10038000013BF9D20B7803704B7843708B78837004
:100390006046704700000000000000000000000000
:1003A000704700BFAFF30080AFF30080AFF3008071
:1003B000FEE700BFAFF30080AFF30080AFF3008033
:1003C00072B640F60000C2F2000080F309880223F2
:1003D00083F31488BFF36F8F40F2000340F20042B2
:1003E000C2F20003C2F2000293420BD2D94311447D
:1003F00021F0030119444FF05532043B43F8042F18
:100400008B42FBD140F20043C2F2000383420CD284
:1004100037491A1D891A21F0030119444FF055324A
:10042000043B43F8042F8B42FBD107F039F840F628
:10043000000140F6F803C2F20001C2F20003994243
:100440000ED2CC431C4424F0030440F2C810043400
:10045000C0F601000023C258CA500433A342FAD1A7
:1004600040F6F80347F68822C2F20003C2F2000207
:1004700093420AD2D943114421F0030119440022C6
:10048000043B43F8042F8B42FBD1FFF789FF40F276
:10049000AC1540F2AC13C0F60005C0F600039D4257
:1004A0000BD2EE431E44B6080136043D002401344D
:1004B00055F8043F9847B442F9D1FFF779FE40F26E
:1004C000AC1540F2AC13C0F60005C0F600039D4227
:1004D0000BD2EE431E44B6080136043D002401341D
:1004E00055F8043F9847B442F9D1FFF761FF00BFC8
:1004F00003080020AFF30080AFF30080AFF300806B
:10050000FEE700BFAFF30080AFF30080AFF30080E1
:1005100072B6FEE7AFF30080AFF30080AFF3008068
:1005200000F0CEFA00DF00BFAFF30080AFF3008031
:10053000EFF30983203383F30988002383F31188C1
:10054000704700BFAFF30080AFF30080AFF30080CF
:1005500008B54FF46D43CEF200034FF44072C0F281
:10056000FA52002199600720DA60102100F098F813
:100570000A20202100F094F80B208021BDE80840DB
:1005800000F08EB8AFF30080AFF30080AFF30080CF
:10059000202383F311884FF46D43CEF200035B6890
:1005A00013F400631FD0EFF30982A2F1200383F359
:1005B000098840F63023C2F200034FF08070996939
:1005C00042F8040CC87F88B118688B68816899422A
:1005D00094BF0023012393B140F22153C0F60003DE
:1005E00042F8083C704783F31188704718688B689D
:1005F0008168994234BF00230123002BECD140F2E3
:100600002453C0F6000342F8083C7047AFF3008063
:1006100008B5202383F3118800F0A2F8002383F3A8
:100620001188BDE80840FFF7B3BF00BFAFF30080FB
:100630002DE9F04FC1F80CD0D0F80CD0BDE8F08F08
:10064000002383F311882846A04700F099FB7047E8
:1006500020F0030303F1604303F56143F0B400F0BD
:1006600003024409D3F80053D200FF26A4009640A9
:1006700004F1604404F5614425EA06050127914030
:1006800000F01F0007FA00F045EA0102C3F800235A
:10069000C4F880012060F0BC704700BFAFF3008059
:1006A00020F0030303F1604303F56D4300F0030002
:1006B00010B4C0009A69FF24844022EA04028140F9
:1006C0000A439A615DF8044B704700BFAFF30080A6
:1006D00040F63022C2F200024FF2A0239269C0F627
:1006E00000039361FEE700BFAFF30080AFF300802B
:1006F00010B582B0FFF72CFF00F0EAF800F068F8C0
:1007000001F0CEFB01F014FC40F6F8004021C2F2EB
:10071000000000F0E5F940F63023C2F200030122A8
:1007200098610277002383F3118862B640F6302384
:10073000C2F200034FF2B0229C69C0F60002002111
:1007400040F6401040F2D163A261C0F60003009170
:100750000122E021C2F2000000F032FA02B010BD26
:1007600070B540F63023C2F200039B69DA7F0AB10C
:10077000013ADA771A6A40F62021C2F2000101320A
:100780001A62CB680A6801338A42CB6019D0966836
:10079000013E9660AEB90D461068D4680860D66018
:1007A0000023416083F311881069A047202383F35D
:1007B00011882A68936840F62021C2F20001002BBC
:1007C000EAD070BDAFF30080AFF30080AFF30080DC
:1007D00040F62023C2F200034FF0FF3100225B609D
:1007E0001B609960DA607047AFF30080AFF3008060
:1007F00030B440F62025C2F2000503612C68A368DE
:10080000C260994204D92468C91AA3688B42FAD3FA
:10081000636804604360AC426060186081601EBF22
:10082000A368C1EB0301A16030BC7047AFF3008047
:10083000036840F62022C2F2000293421FBF99686B
:10084000826852189A6042681360036800215A60F7
:10085000C1607047AFF30080AFF30080AFF300805A
:1008600010B4202383F31188037F0D2B11D8DFE808
:1008700003F029101007100B101010101010100B9F
:10088000436A9A6801329A6090E80C001A60026824
:1008900053604FF0FF34002340F6302281684462F9
:1008A0000377C2F20002126893688B42FBD2516850
:1008B0000260416000235060086083F311885DF896
:1008C000044B7047002383F311885DF8044B704795
:1008D00040F63023C2F2000300225B601B605B61C4
:1008E0001B619A60704700BFAFF30080AFF30080D8
:1008F000002310B48168037740F630230446C2F227
:1009000000031B689A688A42FBD25A6823606260BF
:1009100020465C6014605DF8044B7047AFF30080C4
:1009200040F63023C2F2000370B41A689969146863
:10093000087714260125CE77636015771C60104672
:1009400070BC9A61FFF774BEAFF30080AFF3008014
:1009500030B54B1C87B0054617D040F63024C2F2A4
:10096000000440F66102A36901A8C0F60002FFF787
:100970003FFF2846FFF7D4FF049B13B101A8FFF700
:1009800057FFA369586A07B030BD40F63024C2F261
:100990000004FFF7C5FFA369586A07B030BD00BF68
:1009A000F0B440F63027C2F200078568D7F818C0C7
:1009B000DCF808404162A54206460DD800223B46BD
:1009C00002771B689A689542FBD95A683360726057
:1009D0005E601660F0BC704700238CF81C303B460C
:1009E0001B689A689442FBD95A68CCF800300124FD
:1009F000CCF80420C3F804C0C2F800C034773046F5
:100A0000BE616146F0BCFFF713BE00BFAFF30080CC
:100A100040F63022C2F20002F0B410689569036813
:100A2000AC6813600127142600215A60077703463B
:100A30009061EE77297700E01B689A68A242FBD2AA
:100A40005A682B606A6029465D601560F0BCFFF74C
:100A5000EFBD00BFAFF30080AFF30080AFF30080C5
:100A600040F63022C2F2000270B410689569036843
:100A7000AC681360012600215A6006770346906136
:100A8000297700E01B689A68A242FBD85A682B605D
:100A90006A6029465D60156070BCFFF7C9BD00BF84
:100AA00040F63023C2F200031A689B6992689B6883
:100AB0009A4200D87047FFF7D3BF00BFAFF3008062
:100AC00040F63023C2F200039B69DB7F0BB1FFF7D6
:100AD000C7BFFFF79DBF00BFAFF30080AFF300803B
:100AE0002DE9F00340F63022C2F2000200245569DD
:100AF000447700F12C064FF002094FF0140800F182
:100B000028074FF0010C45610261816080F81C905C
:100B100080F81F80C463846304628461016450614F
:100B200080F81EC0286187620663C662BDE8F003D4
:100B3000704700BFAFF30080AFF30080AFF30080D9
:100B40002DE9F00F40F63025C2F2000582B0A1F188
:100B5000240C696900EB0C0601910A99C66040F209
:100B6000416740F80C3071600199002300F12C0BB3
:100B7000C0F600074FF0020A4FF014094FF00108C9
:100B800000F1280C3762826005614161026480F8DF
:100B90001CA080F81F9080F81E8043776861C363B3
:100BA0008363036283610861C0F828C0C0F830B075
:100BB000C0F82CB002B0BDE8F00F7047AFF3008072
:100BC0002DE9F0479E460446202383F3118840F622
:100BD0003026C2F20006A1F1240318447769E060D0
:100BE00040F2416144F803E0089B002504F12C0E1B
:100BF00004F1280CC0F600014FF0020A4FF014096E
:100C00004FF0010843600162A260266167612264BF
:100C100084F81CA084F81F9084F81E8065777461A6
:100C2000E563A5632562A56120463C612946C4F8B9
:100C300028C0C4F830E0C4F82CE0FFF7B1FE2B4622
:100C400083F311882046BDE8F08700BFAFF3008032
:100C500010B5202383F3118840F63023C2F200033D
:100C60009B691C6C99688C4201D0814200D29860CB
:100C70001864FFF715FF002383F31188204610BD89
:100C800010B52023044683F311880021FFF788FE66
:100C9000002383F31188204610BD00BFAFF300800E
:100CA000202383F31188437F43F004034377002319
:100CB00083F31188704700BFAFF30080AFF300806B
:100CC00008B50146202383F311880620FFF740FE74
:100CD000002383F3118808BDAFF30080AFF30080D9
:100CE00008B5202383F3118840F62023C2F20003C5
:100CF000D968411A02D00620FFF72AFE002383F3A9
:100D0000118808BDAFF30080AFF30080AFF300801F
:100D100008B5202383F3118840F63023C2F2000384
:100D20001A689B6992689B689A4201D3FFF770FE2C
:100D3000002383F3118808BDAFF30080AFF3008078
:100D400038B540F63023C2F200039C692546606244
:100D500055F8280FA84206D00368A362FFF7C8FD24
:100D6000A06AA842F8D1637F9B0704D12269636916
:100D70001A61226953610E20BDE83840FFF7D0BDEB
:100D8000202383F31188FFF7DBBF00BFAFF30080A0
:100D900038B50446202383F31188037F0E2B0AD035
:100DA00040F63023C2F20003826A9B6907201A6072
:100DB000A362FFF7B5FD656A002383F3118820461F
:100DC00000F016F8284638BDAFF30080AFF300807E
:100DD000202383F31188837F01338377002383F3F8
:100DE00011887047AFF30080AFF30080AFF300804D
:100DF0000146202383F31188827F013AD2B28277A1
:100E0000002383F3118812B9037F0E2B00D07047A3
:100E1000437F03F00303012B02D0022B07D070475E
:100E2000026943691A610269536101F0E9B8026914
:100E30004369406C1A610A69536101F091B900BFBE
:100E400070B582B016461C460D4601F091F898B177
:100E5000202383F31188069B2946009332462346BC
:100E6000FFF76EFE0123437700210446FFF798FD4C
:100E7000002383F31188204602B070BDAFF30080D9
:100E8000F0B583B00F4614461E46054601F050F9F2
:100E900098B1202383F31188696800963A46234667
:100EA000FFF74EFE02234377456400210446FFF717
:100EB00077FD002383F31188204603B0F0BD00BF07
:100EC000202383F3118840F63022C2F2000200236F
:100ED0001069827F0132827783F31188704700BFE7
:100EE00010B5202383F3118840F630230469C2F241
:100EF00000039C421DBFA37F0133A377002400237E
:100F000083F31188FFF774FF204610BDAFF3008014
:100F10004060006081607047AFF30080AFF30080F5
:100F200070B5856881600135002D04460BDC6FF0DB
:100F300001066068436863601C60FFF7D9FC0135F7
:100F4000012D4662F5D170BDAFF30080AFF3008094
:100F500008B5202383F31188FFF7E2FFFFF7A0FD18
:100F6000002383F3118808BDAFF30080AFF3008046
:100F70008268013A002A10B50346826001DB002036
:100F800010BD40F63024C2F200040320A26953626F
:100F90005968136051605A600A60FFF7C1FCA36989
:100FA000586A10BDAFF30080AFF30080AFF300804C
:100FB00008B5202383F31188FFF7DAFF002383F3BA
:100FC000118808BDAFF30080AFF30080AFF300805D
:100FD00003468068421E002A10B4A8BF00209A6011
:100FE00002DB5DF8044B704779B140F63022C2F263
:100FF00000020320926953625C6882E818005A601C
:1010000022605DF8044BFFF7A3BC98604FF0FF30FF
:10101000E7E700BFAFF30080AFF30080AFF30080DD
:1010200008B5202383F31188FFF7D2FF002383F351
:10103000118808BDAFF30080AFF30080AFF30080EC
:1010400008B50246202383F3118883680133002BFF
:10105000836003DD002383F3118808BD0068036803
:10106000002113605A60FFF79BFC002383F3118873
:1010700008BD00BFAFF30080AFF30080AFF3008086
:1010800082680132002A10B40346826002DD5DF8F6
:10109000044B704702681168002401604B60546281
:1010A00010465DF8044BFFF723BC00BFAFF3008090
:1010B00070B50C1E054611DD002601E0013C0DD087
:1010C000AB680133002BAB60F8DC286803682B6049
:1010D0005D60FFF70DFC013C4662F1D170BD00BFC1
:1010E00010B5024682B0202383F311888368013350
:1010F000002B836020DD8B68013B002B8B6007DBBE
:10110000FFF7CEFC0020002383F3118802B010BD4E
:1011100040F63023C2F200034A689C69032084E849
:1011200006004C6014606162FFF7FAFB606A0023FE
:1011300083F3118802B010BD0068036813605A6021
:101140000191FFF7D5FB002343620199D3E700BF6C
:101150000023406000608360704700BFAFF30080F1
:10116000F8B540F630230546C2F2000380689C695A
:10117000002853D0A26883689A4206D9037F826010
:10118000042B32D0052B1CD09BB12B4603E0996871
:10119000A268914202D31B689D42F8D15A6823602D
:1011A00062605C60146065620420BDE8F840FFF78F
:1011B000B7BB90E80C001A6002685360FFF798FB19
:1011C000E3E703684168466A0B6007683346796065
:1011D00002E09968914202D31B689E42F9D15A6895
:1011E0000360426058601060CFE703684168466A58
:1011F0000B6007683346796002E09968914202D338
:101200001B689E42F9D15A680360426058601060C2
:10121000B068A26883689342B0D3B6E7E36BAC6072
:10122000EB60E563F8BD00BFAFF30080AFF3008073
:1012300008B5202383F31188FFF792FF002383F37F
:10124000118808BDAFF30080AFF30080AFF30080DA
:101250000246202383F31188836800201BB10023FA
:1012600083F31188704740F63023C2F20003012057
:101270009B69D96B9360D160DA63002383F3118893
:10128000704700BFAFF30080AFF30080AFF3008082
:1012900040F63022C2F2000238B59069202383F371
:1012A0001188C46B2568E368A542C3631CD0016C38
:1012B0004BB11A689A4203D09268914238BF1146E6
:1012C000DB68002BF5D12B68EA6B81602360284630
:1012D0005C600021A560E260EC63FFF761FB002326
:1012E00083F31188204638BD0023A360002383F3D5
:1012F0001188204638BD00BFAFF30080AFF30080F7
:1013000038B540F63023C2F200039869C46B2568F3
:10131000E368A542C36318D0016C4BB11A689A42C6
:1013200003D09268914238BF1146DB68002BF5D19B
:10133000EA6B2B688160236028465C60A560E260F0
:10134000EC63FFF7D5FA204638BD0023A3602046A2
:1013500038BD00BFAFF30080AFF30080AFF3008073
:1013600040F63022C2F2000270B52023946983F364
:101370001188E36BC3B100261A68D9689A42E16309
:1013800008BF9E6009D0D56B1168104619604B608C
:101390009A60DD60D363FFF7ABFAE36B002BEBD110
:1013A000236CA360FFF77CFB002383F3118870BDDF
:1013B00040600060704700BFAFF30080AFF3008073
:1013C00008B50246202383F311880068904205D0B7
:1013D0000368002113605A60FFF7E2FA002383F3E9
:1013E000118808BDAFF30080AFF30080AFF3008039
:1013F00008B503460068984206D002681A60536038
:10140000FFF776FA0023436208BD00BFAFF3008008
:1014100038B504460068A0420AD06FF001050368A1
:1014200023605C60FFF764FA45622068A042F6D151
:1014300038BD00BFAFF30080AFF30080AFF3008092
:1014400008B5202383F31188FFF7E2FFFFF728FB9D
:10145000002383F3118808BDAFF30080AFF3008051
:1014600040F63023C2F2000370B505469C69FFF7D1
:1014700047FF656206462B4603E09968A2689142E1
:1014800002D31B689D42F8D15A6823606260052030
:101490005C601460FFF744FA646A3046FFF760FE50
:1014A000204670BDAFF30080AFF30080AFF3008043
:1014B00008B5202383F31188FFF7D2FF002383F3BD
:1014C000118808BDAFF30080AFF30080AFF3008058
:1014D0002DE9F04106468846FFF712FF40F630221C
:1014E000C2F200020746956933466E6203E09C68CB
:1014F000AA68944202D31B689E42F8D15A682B60B6
:101500006A6041465D6005201560FFF721FA431CC3
:10151000044602D03846FFF723FE2046BDE8F0819E
:1015200008B5202383F31188FFF7D2FF002383F34C
:10153000118808BDAFF30080AFF30080AFF30080E7
:1015400030B4202383F3118840F63023C2F2000325
:1015500004689D690C600024016023464D608A6028
:10156000CC6083F3118830BC704700BFAFF30080BC
:10157000202383F31188024602E0994207D01A46DD
:1015800013688342F9D1002383F3118870470B68F5
:101590001360002383F31188704700BFAFF300800E
:1015A00010B4202383F3118840F63022C2F20002E7
:1015B000002391698A6B22EA00048C6383F311880B
:1015C00010405DF8044B7047AFF30080AFF300802C
:1015D000202383F3118840F63022C2F20002002358
:1015E0009269916B0843906383F31188704700BF41
:1015F00008B5826B037F1143082B81630BD0092B45
:1016000000D008BD436A19408B42FAD1FFF770F948
:101610000023436208BD436A1942F7D108BD00BFE9
:1016200070B50468A04205460E4608D0201D0BC8C0
:101630003343E360FFF7DCFF2468A542F6D170BDB9
:1016400008B5202383F31188FFF7D2FFFFF728FAAC
:10165000002383F3118808BDAFF30080AFF300804F
:1016600008B5202383F31188FFF7DAFFFFF718FA94
:10167000002383F3118808BDAFF30080AFF300802F
:10168000F8B50D46074689B10024012601E0013472
:1016900065B106FA04F32B42F9D057F8242020460E
:1016A00025EA030501349047002DF2D1F8BD00BFB3
:1016B00038B540F63023C2F2000305469C6920236A
:1016C00083F31188A36B10EA030206D1606208203D
:1016D000FFF726F9A36B05EA03025042104023EA04
:1016E0000003A363002383F3118838BDAFF30080A8
:1016F00038B540F63023C2F2000305469C6920232A
:1017000083F31188A36B184006D108206562FFF7A8
:1017100007F9A36B05EA030023EA0003A363002390
:1017200083F3118838BD00BFAFF30080AFF30080B2
:1017300038B540F63023C2F2000304469D692023E9
:1017400083F31188AB6B00EA0302824204D0686223
:101750000920FFF7E5F8AB6B23EA0403AB63002332
:1017600083F31188204638BDAFF30080AFF30080CB
:1017700040F63022C2F2000270B52023044695697B
:1017800083F31188AA6B10EA02060ED121B90B4629
:1017900083F31188002070BD68620820FFF7D8F835
:1017A00000280BDBAA6B04EA02067042304022EAF2
:1017B0000002AA63002383F3118870BD334683F3CC
:1017C0001188002070BD00BFAFF30080AFF3008030
:1017D00040F63022C2F2000270B52023044695691B
:1017E00083F31188AA6B10EA02060ED121B90B46C9
:1017F00083F31188002070BD68620820FFF7A8F805
:1018000000280ADBAA6B04EA020622EA0602AA639F
:10181000002383F31188304670BD334683F311886B
:10182000002070BDAFF30080AFF30080AFF3008005
:1018300040F63022C2F2000238B5044695692023F2
:1018400083F31188AB6B00EA030282420CD021B90A
:101850000B4683F31188002038BD68620920FFF72A
:1018600077F8002808DBAB6B23EA0403AB630023A3
:1018700083F31188204638BD002383F311880020AC
:1018800038BD00BFAFF30080AFF30080AFF300803E
:1018900038B540F63023C2F200039C69202383F35D
:1018A000118800F12C02057F6262036B61630C2DCD
:1018B00084E80C0004631C6007D00A20FFF730F8AE
:1018C000606A002383F3118838BDFFF711F8F4E74D
:1018D00010B5202383F3118840F63024C2F20004AF
:1018E000A3691A4652F82C0F904208D001680B24C5
:1018F000D9624A600023047783F3118810BD0C205D
:10190000FFF70EF8A369D86A03F12C02EEE700BFD7
:1019100008B5202383F31188FFF742F8002383F3EF
:10192000118808BDAFF30080AFF30080AFF30080F3
:1019300010B50B4601EB820141600446C360836031
:10194000036011461C30FFF7E3FA04F11000002198
:10195000BDE81040FFF7DCBAAFF30080AFF30080C2
:1019600010B52023044683F3118803684168C360DF
:10197000C91A836089101C30FFF7D2FA04F11000F5
:101980000021FFF7CDFAFFF78BF8002383F31188CE
:1019900010BD00BFAFF30080AFF30080AFF3008055
:1019A00070B504460E461C301146FFF711FB054684
:1019B00078B9A2686168131D8B42A36028BF2368B1
:1019C000166004F1100028BFA360FFF759FBFFF772
:1019D00067F8284670BD00BFAFF30080AFF300800A
:1019E00008B5202383F31188FFF7DAFF002383F380
:1019F000118808BDAFF30080AFF30080AFF3008023
:101A000038B5436A002B12DD84684568221D013B0E
:101A1000AA42436228BF03688260216000F110007F
:101A200028BF40F8083CFFF72BFB002038BD4FF0E3
:101A3000FF3038BDAFF30080AFF30080AFF300801C
:101A400070B504460E461C301146FFF7C1FA054634
:101A500078B9E3682268043B9342E3603EBF636861
:101A6000043BE36004F110001E60FFF709FBFFF781
:101A700017F8284670BD00BFAFF30080AFF30080B9
:101A800008B5202383F31188FFF7DAFF002383F3DF
:101A9000118808BDAFF30080AFF30080AFF3008082
:101AA000426A002A10B512DDC3680468043BA342F1
:101AB000C3603CBF4368043B02F1FF32426238BF5F
:101AC000C36019601030FFF7DBFA002010BD4FF043
:101AD000FF3010BDAFF30080AFF30080AFF30080A4
:101AE00070B504460E4610301146FFF771FA0546F0
:101AF00080B9E3686268196804339342E36028BFE1
:101B00002368316004F11C0028BFE360FFF7B8FAD6
:101B1000FEF7C6FF284670BDAFF30080AFF300802C
:101B200008B5202383F31188FFF7DAFF002383F33E
:101B3000118808BDAFF30080AFF30080AFF30080E1
:101B40008369002B10B513DD5A1EC3688261426899
:101B50001C6804339342C36028BF03680C6000F123
:101B60001C0028BF40F8103CFFF78AFA002010BD87
:101B70004FF0FF3010BD00BFAFF30080AFF3008027
:101B800010B4024679B140F63023C2F200030D20B2
:101B90009B695A62546883E81400536023605DF8BF
:101BA000044BFEF7D5BE4FF0FF305DF8044B704795
:101BB00030B4029C406000250A44856004620261E2
:101BC000006041618161C160C36130BC704700BF8A
:101BD00038B50446C368006863610022A042A26071
:101BE000A3610AD06FF00105036823605C60FEF713
:101BF0007FFE45622068A042F6D138BDAFF3008079
:101C0000034642698069824210B59C681BD0501C13
:101C1000013458619C60117059691A6991420BD264
:101C2000186898420DD002681A605360FEF760FE93
:101C300000234362184610BD1868DA6898425A615A
:101C4000F1D1002010BD002CE1D06FF0030010BDD9
:101C500070B5202304460E4683F31188C3692BB167
:101C6000984703E0FFF78CFF002815DBA5682046A6
:101C70003146002DF6D0A2692169531C8B42A36125
:101C800005F1FF3528BFE368A560107828BFA36180
:101C9000002383F3118870BD2B4683F3118870BD38
:101CA0002DE9F0471E460446D0F81C80202383F31C
:101CB00011884FF0000901EB020A4F1CB8F1000F28
:101CC00005D02046C04702E0FFF75AFFF0B9A568EB
:101CD00020463146002DF7D0A369013D5A1CA26170
:101CE000A5601B7807F8013C2369A2699A4224BFCA
:101CF000E368A361002383F31188574509F10109C3
:101D000007D0202383F311880137D7E72B4683F3CD
:101D100011884846BDE8F087AFF30080AFF300803C
:101D200030B4029C40608D180561046200608260DE
:101D300041618161C160C36130BC7047AFF3008015
:101D400038B50269C368044600686361D21AA042CC
:101D5000A361A2600AD06FF00105036823605C6094
:101D6000FEF7C6FD45622068A042F6D138BD00BF2F
:101D7000F8B504460F461646202383F3118803E086
:101D8000FFF7FEFE002819DBA56820463146002D2E
:101D9000F6D06369013D5A1C6261A5601F7023691A
:101DA00062699A4224BFE3686361E3690BB120462C
:101DB0009847002383F311880020F8BD2B4683F356
:101DC0001188F8BDAFF30080AFF30080AFF300805F
:101DD00082694169914210B50346846816D018693A
:101DE0000134511C9C609961814214780BD21868AF
:101DF000984206D002681A605360FEF779FD00230E
:101E00004362204610BDDA689A61F0E7002CE6D004
:101E10006FF0020010BD00BFAFF30080AFF3008091
:101E20002DE9F84F9A4604460E461746D0F81C9006
:101E3000202383F311884FF00008A56806F1010BF9
:101E400020466B1EDDB16269A360531C6361337869
:101E50001370236962699A4224BFE3686361B9F130
:101E6000000F00D0C847002383F31188013F08F119
:101E700001080DD0202383F311885E46DDE720465C
:101E80005146FFF77DFE0028D7D02B4683F31188FB
:101E90004046BDE8F88F00BFAFF30080AFF300808D
:101EA0004CF2000140F64C2240F650230648C2F2A4
:101EB0000101C2F20002C2F2000321F0070120F08A
:101EC00007001160186070478F7A0020AFF3008020
:101ED000202383F3118840F6502340F64C22C2F2AF
:101EE0000003C2F2000219681268073020F00700F0
:101EF000521A90429BBF40181860002008460023E9
:101F000083F31188704700BFAFF30080AFF3008008
:101F100040F64C2240F65023C2F20002C2F2000307
:101F200010681B68C01A7047AFF30080AFF30080E1
:101F300040F65823C2F2000341F6D1620021C0F6F8
:101F4000000203F110001A609960D960FFF700B930
:101F50000023083A81600360C36010304A600B6060
:101F6000FFF7F6B8AFF30080AFF30080AFF3008067
:101F7000F8B540F65826C2F20006002818BF0646FB
:101F8000073106F1100021F0070506F10804FFF7FC
:101F90004FF903E05A68954211D91C462368002B7B
:101FA000F8D1FFF775F933681BB305F108009847BE
:101FB000F8B10660456000F108042046F8BD05F15F
:101FC0000801914208D91A6822601C4644F8086B3F
:101FD000FFF75EF92046F8BD4FF6F870CFF6FF70B8
:101FE000401B5F180244186858507A6027605D6093
:101FF000EBE70024E1E700BFAFF30080AFF3008020
:1020000070B50646A0F1080450F8080C00F1080568
:102010001030FFF70DF92B46AB4204D0A34202D398
:102020001B68AB42FAD11A681AB1944201D3134625
:10203000F2E756F8041C46F8082C1C6001F108026F
:1020400056F8085CA018A84209D05A6802F10801A5
:1020500019448C4211D0BDE87040FFF719B94068AF
:10206000A2580144083146F8041C46F8082C5A6866
:1020700002F1080119448C42EDD156F8040C56F8CF
:10208000081C0244083283E80600BDE87040FFF7F0
:10209000FFB800BFAFF30080AFF30080AFF3008064
:1020A00038B540F65823C2F20003002814BF044696
:1020B0001C4604F110000D46FFF7BAF8A3686BB197
:1020C0000022144658681B6801340244002BF9D1E1
:1020D00005B12A60FFF7DCF8204638BD1A461C46D9
:1020E000F6E700BFAFF30080AFF30080AFF30080EE
:1020F0000023416082600360704700BFAFF300803F
:1021000010B462B1202383F31188046800230C60AB
:10211000016083F311884368013A1944F2D15DF8F4
:10212000044B7047AFF30080AFF30080AFF3008043
:1021300008B50246202383F31188006828B103689C
:102140001360002383F3118808BD9368002BF8D037
:1021500050689847002383F3118808BDAFF30080CF
:10216000202383F31188026800230A60016083F34F
:1021700011887047AFF30080AFF30080AFF30080A9
:1021800041F20D13C2F2000301221A70704700BF22
:1021900070B541F24016C2F200064C253068036863
:1021A0002D219B6841F240149847013DC2F2000482
:1021B000F4D1206803684FF2F0211B68C0F60001DB
:1021C0000222984770BD00BFAFF30080AFF30080DC
:1021D00070B584B048B30DF101054CF6CD462B46E1
:1021E000CCF6CC46A6FB0012D20802EB8201A0EB93
:1021F00041013031C9B203F8011C1C4610460133BD
:10220000002AEFD16B469C420DD941F24016C2F232
:10221000000602E014F8021C013C306803689B6869
:102220009847AC42F6D104B070BD41F24013C2F2FF
:1022300000033021186803689B68984704B070BD9C
:1022400038B5017861B141F240150446C2F200058B
:10225000286803689B68984714F8011F0029F7D184
:1022600038BD00BFAFF30080AFF30080AFF3008054
:1022700038B5017841F24015A1B10446C2F200051B
:10228000286803689B68984714F8011F0029F7D154
:10229000286803684FF2F0211B68C0F60001022293
:1022A000984738BDC2F20005F2E700BFAFF30080E7
:1022B00010B4202383F3118841F21012C2F20002FD
:1022C000002311684C1C0870146083F311885DF8BA
:1022D000044B7047AFF30080AFF30080AFF3008092
:1022E00010B4002279B941F20C1441F2141141F2F8
:1022F0000813C2F20004C2F20001C2F2000301227C
:1023000022700A70186010465DF8044B704700BFD9
:10231000F0B441F21016C2F2000641F24417C2F2C4
:10232000000735683B4605E013F8014B11F8012B17
:10233000944207D1AB42F7D30A781AB937601046F6
:10234000F0BC704741F20C1441F2141141F2081331
:10235000C2F20004C2F20001C2F2000301222270A4
:1023600018600A701046F0BC704700BFAFF30080E1
:1023700040F62023C2F20003521ADB68591A914238
:1023800010B438BF00220FD341F20C1441F21411E3
:1023900041F20813C2F20004C2F20001C2F20003CB
:1023A000012222700A70186010465DF8044B7047D5
:1023B00038B5064C04F1140554F8043F18460BB127
:1023C000FEF76EFCAC42F7D138BD00BF28110020EB
:1023D00070B541F22C14C2F2000404F11405002679
:1023E00054F8043B18461BB1FEF7D2FC44F8046CC9
:1023F000AC42F5D170BD00BFAFF30080AFF30080F9
:1024000040F63023C2F2000330B49C694FF47A7274
:1024100002FB00F044F6D353226A411EC1F262036C
:10242000501CA3FB015100EB91118A42236A0AD28E
:102430008B422CBF00200120934238BF002000288F
:10244000F3D130BC7047934234BF002001208B424F
:1024500038BF40F001000028E7D1F2E7AFF3008079
:1024600008B50120FEF72CFC40F62023C2F2000341
:10247000D86808BDAFF30080AFF30080AFF30080F1
:1024800008B541F20D13C2F2000300221A70202396
:1024900083F311884FF47A7303FB00F044F6D353AF
:1024A0000138C1F26203A3FB0023990941F218101D
:1024B00042F281120131C2F20000C0F60002002394
:1024C000FEF796F9002383F3118808BDAFF300806F
:1024D0002DE9F04F41F24014C2F2000485B02060B3
:1024E0004FF66C40C0F60000FFF7C2FE4FF2F4203A
:1024F000C0F60000FFF7BCFE4FF210304FF214356B
:10250000C0F60000FFF7B4FEC0F600052A212068DF
:1025100003689B68984715F8011F0029F7D14FF20F
:102520007430C0F600004FF27C35FFF7A1FEC0F614
:1025300000052A21206803689B68984715F8011F49
:102540000029F7D14FF29030C0F600004FF2A835C5
:10255000FFF78EFEC0F600052A21206803689B68FD
:10256000984715F8011F0029F7D14FF2BC30C0F68B
:1025700000004FF2C835FFF77BFEC0F600052A21A8
:10258000206803689B68984715F8011F0029F7D158
:102590004FF2DC30C0F600004FF2E835FFF768FE7E
:1025A000C0F600052A21206803689B68984715F843
:1025B000011F0029F7D14FF2FC30C0F600004FF2A6
:1025C0000845FFF755FEC0F600052A21206803687C
:1025D0009B68984715F8011F0029F7D14FF21C405E
:1025E000C0F600004FF23445FFF742FEC0F600058A
:1025F0002A21206803689B68984715F8011F002965
:10260000F7D14FF24840C0F600004FF27C45FFF78B
:102610002FFEC0F600052A21206803689B689847B2
:1026200015F8011F0029F7D14FF29040C0F60000C5
:102630000191FFF71DFE41F214124FF66C40C2F2F9
:102640000002C0F600000392FFF712FE0199039A00
:102650004FF2C0434FF2305741F2101541F2441986
:10266000C0F6000311708A460293C0F60007C2F25A
:102670000005C2F200090AF1010A4FF0000857F8FC
:10268000043B002B00F0A2804FF2283BFFF780FDB7
:10269000C0F6000B2D2120680268926890471BF855
:1026A000011F41F24016C2F200060029F3D1504644
:1026B000FFF78EFD306803682E219B6808F1010842
:1026C00098474FF2A4464046FFF782FDC0F6000649
:1026D0002021206803689B68984716F8011F00298D
:1026E000F7D157F8043C1E68317839B12068036887
:1026F0009B68984716F8011F0029F7D14FF2383030
:10270000C0F60000FFF7B4FDC820FEF7D9FA41F289
:102710002C13C2F2000357F804BCC5F80090002245
:102720001A605A609A60DA601A6141F20C16C2F2BD
:102730000006DBF80430327003B19847DBF80C3048
:102740009847DBF8083003B19847FFF741FE33782C
:10275000002B65D04FF23C36C0F600062D212068D4
:1027600003689B68984716F8011F0029F7D141F2CA
:102770000813C2F200034FF2A8461868FFF728FDBD
:10278000C0F600062021206803689B68984716F869
:10279000011F0029F7D12B684B4588BF294E0AD964
:1027A000206816F8011C03689B6898472B689E42B6
:1027B00006F10106F4D34FF25430C0F60000FFF7E3
:1027C00057FD57F8043B002B7FF45EAF029A52F896
:1027D000047F0292002F7FF44EAFFFF7D9FC4FF633
:1027E0006C40C0F600004FF2AC45FFF741FDC0F66B
:1027F00000054621206803689B68984715F8011F6B
:102800000029F7D1039A13788BB94FF26430C0F6E0
:102810000000FFF72DFD039B187805B0BDE8F08F91
:102820004FF25830C0F60000FFF722FD27E74FF2C5
:102830006C30C0F60000FFF71BFD039B187805B055
:10284000BDE8F08F45110020AFF30080AFF30080AA
:10285000F0B540F63027C2F200074FF2D026BB6930
:1028600083B0C0F600069A68306842F631154FF220
:102870006451C0F60005C0F600012B460091053AF0
:102880004FF4A871FEF79CF9BA697368926841F237
:102890002C14C2F200044FF25051C0F60001206027
:1028A0000091043A18464FF4A8712B46FEF788F9B8
:1028B000BA69B368926860604FF25451C0F6000183
:1028C0000091033A18464FF4A8712B46FEF778F9A9
:1028D000BA69F3689268A0604FF25851C0F60001DF
:1028E0000091023A18464FF4A8712B46FEF768F99A
:1028F000BA6933699268E0604FF25C51C0F600013A
:10290000013A009118464FF4A8712B46FEF758F98A
:102910002061FFF75DFD4FF26051C0F6000101201C
:1029200003B0BDE8F040FFF7F3BC00BFAFF3008099
:1029300008B50078FFF7BCFC002008BDAFF30080AD
:10294000F0B540F63027C2F200074FF2D026BB693F
:1029500083B0C0F600069A68706842F631154FF2EF
:102960005051C0F60005C0F600012B460091043A14
:102970004FF4A871FEF724F9BA693368926841F2FE
:102980002C14C2F200044FF26451C0F600016060E2
:102990000091053A18464FF4A8712B46FEF710F93E
:1029A000BA693369926820604FF25C51C0F6000149
:1029B0000091013A18464FF4A8712B46FEF700F932
:1029C000BA69F368926820614FF25851C0F600016D
:1029D0000091023A18464FF4A8712B46FEF7F0F822
:1029E0002023E06083F3118840F63022C2F2000217
:1029F0004FF2D0239269C0F60003926898684FF2B4
:102A00005451C0F6000142F631130091033AC0F66A
:102A100000034FF4A871FEF793F841F22C12C2F2B2
:102A200000020023906083F3118841F22C13C2F25C
:102A300000039868FEF724F9FFF7CAFC4FF26051D3
:102A4000C0F60001012003B0BDE8F040FFF760BC14
:102A5000F8B540F63024C2F20004A3699D686E1CEC
:102A60003046FEF7F5F8B0EB050CDCF10001074647
:102A700051EB0C010120FFF733FC00B1F8BDA36955
:102A80009968B6EB010EDEF1000151EB0E01022058
:102A9000FFF726FC0028F1D13846FEF7D9F8301AA6
:102AA000414241410320FFF71BFC0028E6D1A36906
:102AB00099684A1B514251410420FFF711FC00283C
:102AC000DCD1202383F31188A3699A6802329A60CB
:102AD000002383F3118840F63024C2F20004AF1CB7
:102AE000A3699968CB1B594259410520FFF7F8FBB0
:102AF0000028C3D13046FEF7ABF8B0EB050CDCF193
:102B0000000151EB0C010620FFF7EAFB0028B5D1CC
:102B1000A3699968B7EB010EDEF1000151EB0E01DC
:102B20000720FFF7DDFB0028A8D1A369196C771AED
:102B3000794279410820FFF7D3FB00289ED1EF1C92
:102B40003846FEF785F8301A414241410920FFF727
:102B5000C7FB002892D1A36999687A1A5142514162
:102B60000A20FFF7BDFB002888D1A369196C7B1AE6
:102B7000594259410B20FFF7B3FB00287FF47EAF89
:102B8000202383F31188A26900239560156483F3E1
:102B9000118873E7AFF30080AFF30080AFF30080DC
:102BA00038B540F62024C2F20004FFF759FCE5686E
:102BB0006420FEF785F805F1640105F16502012046
:102BC000FFF7D6FB00B138BDE5686420FEF778F862
:102BD00005F1640105F165020220FFF7C9FB002839
:102BE000F1D1E5684FF47A70FEF76AF805F57A716D
:102BF00005F2E9320320FFF7BBFB0028E3D1E468CC
:102C000004F164052846FEF76BF8294604F16502D5
:102C10000420BDE83840FFF7ABBB00BFAFF3008036
:102C20002DE9F04140F63025C2F200054FF2D026E2
:102C3000C0F60006AB69D6F800809A6884B04FF2FF
:102C40005C57C0F6000742F6E1530532C0F60003B8
:102C50004FF4A87140460097FDF7B2FF7268AB6968
:102C6000039241F22C149A68C2F200044FF25851B8
:102C7000C0F6000142F6E153206001320091C0F637
:102C800000034FF4A8710398FDF79AFFB268AB698F
:102C900003924FF254519A686060C0F6000142F608
:102CA000E15303320091C0F600034FF4A87103987A
:102CB000FDF786FFF268AB6903924FF250519A68B4
:102CC000A060C0F6000142F6E15304320091C0F664
:102CD00000034FF4A8710398FDF772FFAB693669E2
:102CE0009A68E0604FF26451C0F6000142F6E15389
:102CF0000232C0F60003009130464FF4A871FDF790
:102D00005FFF206140F60000C2F20000FEF798F974
:102D100040F60000C2F20000FEF792F940F6000013
:102D2000C2F20000FEF78CF940F60000C2F200008B
:102D3000FEF786F940F60000C2F20000FEF780F9C7
:102D4000FFF746FB4FF26051C0F600010120FFF78C
:102D5000DFFA10B104B0BDE8F081AB699A68009762
:102D600042F6E15305324046C0F600034FF4A87125
:102D7000FDF726FF2023206083F3118840F6000032
:102D8000C2F200000221FEF793F9FDF789FE00234D
:102D900083F31188FFF71CFB40F60003C2F2000327
:102DA000022099684B1E5942594104B0BDE8F041D8
:102DB000FFF796BAAFF30080AFF30080AFF3008067
:102DC00010B540F60004C2F200042046FEF7F0F809
:102DD0002046FEF735F9002010BD00BFAFF300809C
:102DE00010B5044640F60000C2F20000FEF7E0F81D
:102DF0002078FFF75DFA002010BD00BFAFF3008020
:102E000040F60000C2F200000021FEF781B800BFCA
:102E100040F60000C2F200000021FEF779B800BFC2
:102E200040F60000C2F200000021FEF771B800BFBA
:102E300008B53220FDF744FF202383F3118840F6C4
:102E40000000C2F20000FEF71BF9FDF729FE002387
:102E500083F31188002008BDAFF30080AFF300803A
:102E600008B5202383F311888368002B06DDFDF766
:102E700017FE002383F31188002008BDFEF700F938
:102E8000F5E700BFAFF30080AFF30080AFF3008041
:102E900000B587B003A80021FEF73AF803A8002187
:102EA000FEF756F805990029CCBF00210121012029
:102EB000FFF716FA10B107B05DF804FB40F63022B8
:102EC000C2F200024FF2D0239269C0F6000392686A
:102ED000186803AB009342F661634FF4A871013A9E
:102EE000C0F60003FDF76CFE41F22C13C2F20003A2
:102EF000186003A8FEF75CF805990029CCBF0021F3
:102F000001210220FFF7ECF90028D4D1202383F31C
:102F10001188059B002B37DDFDF7C2FD002383F3ED
:102F2000118805990029D4BF002101210320FFF752
:102F3000D7F90028BFD10599B1F1010EDEF10001EA
:102F400051EB0E010420FFF7CBF90028B3D1202369
:102F500083F31188059B002B1ADDFDF7A1FD0023EB
:102F600083F3118805990029D4BF00210121032092
:102F7000FFF7B6F900289ED105994A1E51425141EA
:102F80000520FFF7ADF996E703A8FEF779F8C3E748
:102F900003A8FEF775F8E0E7AFF30080AFF3008019
:102FA00070B540F60004C2F2000482B00021204651
:102FB000FEF736F8B0F1FF36714271410120FFF79C
:102FC0008FF908B102B070BD21680D1B69426941DB
:102FD0000220FFF785F90028F4D1A168D1F10101A1
:102FE00038BF00210320FFF77BF90028EAD140F623
:102FF0003022C2F200024FF2D0239269C0F60003E1
:1030000092681968009042F63163013A0846C0F6AA
:1030100000034FF4A871FDF7D3FD41F22C13C2F267
:1030200000034FF4FA7118602046FDF7F9FF0546DA
:10303000FFF7CEF9D5F1010138BF00210420FFF7D9
:103040004FF90028BED121680A1B51425141052089
:10305000FFF746F90028B5D1A168D1F1010138BFC9
:1030600000210620FFF73CF90028ABD1FFF7F8F963
:1030700040F62023C2F200034125DE682846FFF710
:1030800017F940F600004FF4FA71C2F20000FDF7A4
:10309000C7FFB0F1FF33594259410720FFF720F92C
:1030A00000288FD12168B1EB040CDCF1000151EB59
:1030B0000C010820FFF714F9002883D1A168D1F191
:1030C00001014FF0090038BF0021FFF709F9013570
:1030D000EDB200287FF476AF462DCFD14FF260518C
:1030E000C0F600010A20FFF713F900287FF46AAF49
:1030F0000B2006F6C41106F6C91202B0BDE87040F6
:10310000FFF736B9AFF30080AFF30080AFF3008074
:1031100010B540F63022C2F200024FF2D02392697D
:10312000C0F6000382B092681868002142F6C153CD
:1031300001320091C0F600034FF4A871FDF740FD85
:1031400041F22C13C2F2000340F60004C2F2000464
:10315000186021462046FDF7C3FF2168B1EB040C3F
:10316000DCF1000151EB0C010120FFF7B9F808B1C7
:1031700002B010BDA168D1F1010138BF00210220C9
:10318000FFF7AEF80028F3D121462046FDF7A8FF4F
:103190002168B1EB040EDEF1000151EB0E010320BA
:1031A000FFF79EF80028E3D1A168D1F101014FF0AB
:1031B000040038BF002102B0BDE81040FFF790B80E
:1031C000F0B540F63027C2F2000740F60C00BB69AC
:1031D00085B0C2F200004FF2D0259E68C0F600050F
:1031E000FEF726F84FF26451C0F6000143F2D123F6
:1031F000721C0091C0F600034FF4A8712868FDF717
:10320000DFFC41F22C146B68C2F200044FF2505103
:103210000393C0F6000143F2D1232060B21C009159
:10322000C0F600034FF4A8710398FDF7C9FCAB6822
:1032300060604FF254510393C0F6000143F2D12372
:10324000F21C0091C0F600034FF4A8710398FDF73B
:10325000B7FCEB68A0604FF258510393C0F6000131
:1032600043F2D123321D0091C0F600034FF4A87140
:103270000398FDF7A5FC2A69E0604FF25C51C0F6A7
:10328000000143F2D123C0F6000310460091721DE5
:103290004FF4A871FDF794FC2061FDF7F9FFFFF7EB
:1032A00097F8BB6999688B1B594259410120FFF778
:1032B00017F808B105B0F0BD4FF26051C0F600013B
:1032C000022005B0BDE8F040FFF722B8AFF3008060
:1032D00010B5044640F60C00C2F20000FDF7A8FF4E
:1032E0002078FEF7E5FFFDF7D3FF002010BD00BFFB
:1032F00010B5044640F61C00C2F20000FDF798FF2E
:103300002078FEF7D5FFFDF7C3FF002010BD00BFFA
:1033100040F60C00C2F20000FDF71ABFAFF30080C8
:1033200040F60C00C2F20000FDF712BFAFF30080C0
:1033300008B540F60C00C2F20000FDF709FF40F6A8
:103340001C00C2F20000BDE80840FDF701BF00BF4D
:1033500008B540F60C00C2F20000FDF7F9FE40F699
:103360001C00C2F20000BDE80840FDF7F1BE00BF3E
:1033700040F60C00C2F20000FDF7EABEAFF3008099
:103380002DE9F04140F63026C2F2000682B0FFF788
:1033900067F8B3694FF2D0259A68C0F6000540F689
:1033A00020240027C2F2000443F2C153013A0097DF
:1033B000C0F600034FF4A8712868D4F80C80FDF71C
:1033C000FFFBB36969689A68009741F22C14C2F256
:1033D000000443F2A1532060023A0846C0F60003FD
:1033E0004FF4A871FDF7ECFBB369A9689A686060B7
:1033F00043F24153033A0846C0F600034FF4A87164
:103400000097FDF7DDFBA060FEF7E2FF4FF2E06101
:10341000C0F600010120FEF77BFF10B102B0BDE84D
:10342000F081022008F1640108F1690202B0BDE8F0
:10343000F041FEF79DBF00BFAFF30080AFF3008007
:103440002DE9F04140F63026C2F2000682B0FFF7C7
:1034500007F8B3694FF2D025C0F600059A682868CE
:1034600040F620240027C2F2000443F27153053ACB
:103470000097C0F600034FF4A871D4F80C80FDF754
:103480009FFBB36969689A68009741F22C14C2F2F5
:10349000000443F271632060043A0846C0F600035A
:1034A0004FF4A871FDF78CFBB369A9689A68606056
:1034B00043F24163033A0846C0F600034FF4A87193
:1034C0000097FDF77DFBB369E9689A68A06043F255
:1034D0002163023A0846C0F600034FF4A871009732
:1034E000FDF76EFBB36929699A68E06043F2F15316
:1034F000013A0846C0F600034FF4A8710097FDF7A3
:103500005FFB2061FEF764FF4FF26051C0F60001DF
:103510000120FEF7FDFE10B102B0BDE8F0810220EF
:1035200008F16E0108F1730202B0BDE8F041FEF748
:103530001FBF00BFAFF30080AFF30080AFF3008088
:1035400008B540F60C00C2F20000FDF771FE28201D
:10355000FEF756FFFDF79CFE0A20FEF751FF4320C1
:10356000FEF7A6FE002008BDAFF30080AFF3008099
:1035700008B540F60C00C2F20000FDF759FE1E200F
:10358000FEF73EFFFDF784FE4520FEF791FE00208A
:1035900008BD00BFAFF30080AFF30080AFF3008041
:1035A00008B51420FDF78CFB2820FEF729FF4220E8
:1035B000FEF77EFE002008BDAFF30080AFF3008071
:1035C00008B52820FDF77CFB40F60C00C2F2000095
:1035D000FDF72EFE0A20FEF713FFFDF759FE4120EE
:1035E000FEF766FE002008BDAFF30080AFF3008059
:1035F00008B53220FDF764FB40F61C00C2F2000063
:10360000FDF716FE0A20FEF7FBFEFDF741FE412006
:10361000FEF74EFE002008BDAFF30080AFF3008040
:1036200008B52820FDF74CFB1420FEF7E9FE4220E8
:10363000FEF73EFE002008BDAFF30080AFF3008030
:1036400008B51420FDF73CFB40F61C00C2F2000058
:10365000FDF7EEFD0A20FEF7D3FEFDF719FE43202D
:10366000FEF726FE002008BDAFF30080AFF3008018
:1036700008B50A20FDF724FB40F61C00C2F200004A
:10368000FDF7D6FD1420FEF7BBFE40F60C00C2F29B
:103690000000FDF7CDFD0A20FEF7B2FEFDF7F8FDB4
:1036A0000A20FEF7ADFEFDF7F3FD4420FEF700FE15
:1036B000002008BDAFF30080AFF30080AFF30080BF
:1036C00008B59620FDF7FCFA40F60C00C2F20000A7
:1036D000FDF7AEFDFDF7DCFD002008BDAFF3008077
:1036E00008B53220FDF7ECFA40F61C00C2F20000EB
:1036F000FDF79EFDFDF7CCFD002008BDAFF3008077
:103700002DE9F04640F63024C2F200044FF2D026F4
:10371000A369C0F6000685B09F6833684FF2585120
:103720000393C0F6000107F1010943F2E1634A4641
:103730000091C0F600034FF4A8710398FDF740FA1A
:1037400041F22C157668C2F200054FF25C51C0F6CA
:10375000000107F1020A43F2C1632860C0F60003CA
:103760005246009130464FF4A871FDF729FA68607F
:1037700040F61C00C2F20000FDF75AFDA3699968EB
:10378000CB1B594259410120FEF7AAFD10B105B0EB
:10379000BDE8F0866420FDF793FAA3699968B1EB60
:1037A000090CDCF1000151EB0C010220FEF798FD41
:1037B0000028ECD140F60C00C2F20000FDF738FD05
:1037C000A3699968B1EB090EDEF1000151EB0E011E
:1037D0000320FEF785FD0028D9D16420FDF770FA9B
:1037E000A3699968B1EB0A02514251410420FEF7E6
:1037F00077FD0028CBD1FDF74BFDA3699968B1EBAC
:103800000903594259410520FEF76AFD0028BED13F
:103810006420FDF755FAA3699968B1EB090CDCF156
:10382000000151EB0C010620FEF75AFD0028AED135
:10383000FDF796FDA3699968B1EB070EDEF1000173
:1038400051EB0E010720FEF74BFD00289FD1FEF73C
:10385000BFFD4FF25052C0F6000243F2E163009206
:10386000C0F600034FF4A8714A460398FDF7A8F983
:103870004FF25452C0F6000243F2C1632860C0F612
:1038800000034FF4A871009230465246FDF798F9B4
:10389000686040F61C00C2F20000FDF7C9FCA36995
:1038A0009968CA1B514251410820FEF719FD0028B2
:1038B0007FF46DAF6420FDF703FAA3699968B1EB5B
:1038C0000903594259410920FEF70AFD00287FF4F7
:1038D0005EAF40F60C00C2F20000FDF7A9FCA36940
:1038E0009968B1EB090CDCF1000151EB0C010A20E5
:1038F000FEF7F6FC00287FF44AAF6420FDF7E0F9FC
:10390000A3699968B1EB0A0EDEF1000151EB0E01DB
:103910000B20FEF7E5FC00287FF439AF202383F36A
:103920001188FDF7EDFCFDF7BBF8002383F3118848
:10393000A3699968B1EB0906714240F630247141E0
:103940000C20C2F20004FEF7CBFC00287FF41FAF6E
:103950006420FDF7B5F9A3699968B1EB09056942DF
:1039600069410D20FEF7BCFC00287FF410AFFDF785
:10397000F7FCA3699968CA1B514251410E20FEF71A
:10398000AFFC00287FF403AF05B0BDE8F046FEF7BA
:103990001FBD00BFAFF30080AFF30080AFF3008026
:1039A000F8B540F63025C2F2000540F60C04AB69CC
:1039B000C2F2000420469E68FDF74AFC0146012041
:1039C000FEF78EFC00B1F8BD2046FDF741FC80F00B
:1039D0000101C9B20220FEF783FC0028F3D12023A5
:1039E00083F31188FDF78CFC002383F31188216891
:1039F000B1EB040EDEF1000140F60C0751EB0E01B5
:103A00000320C2F20007FEF76BFC0028DBD1B96887
:103A1000D1F1010138BF00210420FEF761FC00282C
:103A2000D1D1AB6999688C1B614261410520FEF7D9
:103A300057FC0028C7D13846FDF7FAFBFDF790FC8C
:103A40003968CA1B514251410620FEF749FC002843
:103A5000B9D1B968D1F101014FF0070038BF002199
:103A6000BDE8F840FEF73CBCAFF30080AFF3008048
:103A7000F0B540F63023C2F200034FF2D0269B6926
:103A800083B09F68C0F6000643F671354FF264516B
:103A9000C0F60005C0F600017A1C2B460091306884
:103AA0004FF4A871FDF78CF841F22C14C2F2000417
:103AB000736820604FF25051C0F60001BA1C0091AB
:103AC00018464FF4A8712B46FDF77AF8B36860608A
:103AD0004FF25451C0F60001FA1C009118464FF401
:103AE000A8712B46FDF76CF8F368A0604FF25851AF
:103AF000C0F600013A1D009118464FF4A8712B46FC
:103B0000FDF75EF83369E0604FF25C51C0F60001EA
:103B100000917A1D18464FF4A8712B46FDF750F816
:103B20002023206183F3118840F62C04C2F20004A4
:103B30002046FDF75DFC2046FDF75AFC2046FDF7C8
:103B400057FC2046FDF754FC2046FDF751FCFCF7DE
:103B5000A7FF002383F31188FEF73AFC4FF2605170
:103B6000C0F60001012003B0BDE8F040FEF7D0BB75
:103B700010B5044640F60C00C2F20000FDF758FBF9
:103B800040F62C00C2F20000FDF792FC2078FEF710
:103B90008FFBFDF77DFB002010BD00BFAFF3008061
:103BA00008B540F62C00C2F20000FDF701FC40F61B
:103BB0000C00C2F20000BDE80840FDF7C9BA00BF22
:103BC00008B540F62C00C2F20000FDF7F1FB40F60C
:103BD0000C00C2F20000BDE80840FDF7B9BA00BF12
:103BE00008B540F62C00C2F20000FDF7E1FB40F6FC
:103BF0000C00C2F20000FDF7ABFA40F61C00C2F266
:103C00000000BDE80840FDF7A3BA00BFAFF3008095
:103C1000F0B540F63023C2F200034FF2D0269B6984
:103C200083B09F68C0F6000643F671354FF26451C9
:103C3000C0F60005C0F600017A1C2B4600913068E2
:103C40004FF4A871FCF7BCFF41F22C14C2F200043F
:103C5000736820604FF25051C0F60001BA1C009109
:103C600018464FF4A8712B46FCF7AAFFB3686060B2
:103C70004FF25451C0F60001FA1C009118464FF45F
:103C8000A8712B46FCF79CFFF368A0604FF25851D7
:103C9000C0F600013A1D009118464FF4A8712B465A
:103CA000FCF78EFF3369E0604FF25C51C0F6000113
:103CB0007A1D009118464FF4A8712B46FCF780FF3F
:103CC000206140F62C00C2F20000FDF7B9FBFEF7C0
:103CD0007FFB4FF26051C0F60001012003B0BDE848
:103CE000F040FEF715BB00BFAFF30080AFF30080DC
:103CF000F0B540F63023C2F200034FF2D0259B69A5
:103D000083B09E68C0F600054FF25C51C0F600011A
:103D100043F6A153721C00912868C0F600034FF4CB
:103D2000A871FCF74DFF41F22C14C2F200046F6839
:103D300020604FF25451C0F6000143F67133B21CBB
:103D400000913846C0F600034FF4A871FCF738FF25
:103D5000AD6860604FF25851C0F6000143F2F123A4
:103D6000F21CC0F60003009128464FF4A871FCF73E
:103D700027FF40F62C05C2F20005A0602846FDF79B
:103D80001FFB2846FDF71CFBFEF722FB4FF2E0610C
:103D9000C0F60001012003B0BDE8F040FEF7B8BA5C
:103DA00010B5044640F61C00C2F20000FDF740FAD0
:103DB00040F60C00C2F20000FDF73AFA40F62C0083
:103DC0004FF0FF31C2F20000FDF7AAFB2078FEF7AA
:103DD0006FFAFDF75DFAFDF75BFA002010BD00BF3A
:103DE00010B540F63022C2F200024FF2D0239169A2
:103DF000C0F6000382B08A681868009143F67163C8
:103E000001324FF4A871C0F60003FCF7D9FE41F26D
:103E10002C13C2F200031860FDF75AFD446B2146D3
:103E2000FDF776FDE0B2FEF743FAFDF751FD446B76
:103E30002146FDF76DFDE0B2FEF73AFAFDF748FDC9
:103E4000446B2146FDF764FDE0B2FEF731FA4FF214
:103E5000E061C0F60001012002B0BDE81040FEF7AD
:103E600057BA00BFAFF30080AFF30080AFF300801C
:103E700010B541210446FDF70BFD20464221FDF718
:103E800007FD20464321FDF703FD002010BD00BFC4
:103E900070B540F63405C2F2000582B0696AB1F12E
:103EA000050EDEF1000151EB0E010120FEF718FABC
:103EB00028BB422440F634002146C2F200004FF0F5
:103EC000FF32FDF78DFDD0F1010138BF0021022046
:103ED0000134FEF705FA90B9462CEBD140F63400D8
:103EE0004121C2F200004FF0FF32FDF7C9FDD0F1D1
:103EF000010138BF00210320FEF7F2F908B102B03A
:103F000070BD40F634005821C2F200000122FDF7D6
:103F100067FDB0F1FF36714271410420FEF7E0F910
:103F20000028ECD1202383F3118840F63400582177
:103F3000C2F20000FDF764FD0023014683F31188FF
:103F4000B1F1FF34614261410520FEF7C9F9002853
:103F5000D5D140F6340058210122C2F20000FDF70D
:103F60008FFDB0F1FF32514251410620FEF7B8F902
:103F70000028C4D1202383F3118840F6340058214F
:103F8000C2F20000FDF78CFD0023014683F3118887
:103F9000B1F1FF33594259410720FEF7A1F900283A
:103FA000ADD1202383F31188696AD1F101014FF06B
:103FB000080038BF0021FEF793F9034618B100232B
:103FC00083F311889BE783F31188202383F31188FF
:103FD000A969B1F1050CDCF100014FF0090051EBCA
:103FE0000C01FEF77DF903460028E8D183F3118820
:103FF000202383F31188E968AB68B1EB030EDEF18F
:1040000000014FF00A0051EB0E01FEF769F90023A1
:104010000028D5D183F31188052605E09DF804001A
:10402000FEF746F9013E13D040F63404C2F2000414
:1040300001A920464FF0FF32FDF772FDD0F10101DA
:1040400038BF00210B20FEF74BF90028E6D056E7D9
:104050004FF26051C0F600010C20FEF759F900281C
:104060007FF44DAF472120464FF0FF32FDF7B8FCFB
:10407000D0F1010138BF00210D20FEF731F90028F1
:104080007FF43DAF01A920464FF0FF32FDF748FD18
:10409000D0F1010138BF00210E20FEF721F90028E0
:1040A0007FF42DAF2168A368CE1A714271410F20B1
:1040B000FEF716F900287FF422AF2168E368CA1AD8
:1040C000514251411020FEF70BF900287FF417AF41
:1040D00001A920460122FDF723FDB0F1FF3359422B
:1040E00059411120FEF7FCF800287FF408AF202387
:1040F00083F3118840F6340001A9C2F20000FDF7F5
:104100001FFD0023014683F31188B1F1FF3CDCF170
:10411000000151EB0C011220FEF7E2F800287FF4B9
:10412000EEAE202383F31188696AB1F1050EDEF14A
:1041300000014FF0130051EB0E01FEF7D1F8002300
:1041400000287FF43DAF83F31188202383F3118887
:10415000A969D1F101014FF0140038BF0021FEF729
:10416000BFF8034600287FF42AAF83F31188202389
:1041700083F31188E968AB68CE1A71424FF01500DD
:104180007141FEF7ADF8034600287FF418AF83F3C2
:104190001188202383F3118840F634004121C2F2B4
:1041A0000000FDF72DFCD0F1010138BF00211620E1
:1041B000FEF796F800287FF4A2AE40F634004221C4
:1041C000C2F20000FDF71CFCD0F1010138BF002154
:1041D0001720FEF785F800287FF491AE40F63400F2
:1041E0004321C2F20000FDF70BFCD0F1010138BF02
:1041F00000211820FEF774F800287FF480AE40F606
:1042000034004421C2F20000FDF7FAFBD0F10101B5
:1042100038BF00211920FEF763F8044600287FF418
:104220006EAE40F634004521C2F20000FDF7E8FB17
:104230002346014683F31188D1F1010138BF0021E3
:104240001A20FEF74DF800287FF459AEE968AB68F4
:10425000CC1A614261411B20FEF742F800287FF42E
:104260004EAE0524202383F3118840F6340001A9C3
:10427000C2F20000FDF764FC0023014683F31188BD
:10428000D1F1010138BF00211C20FEF729F80028D8
:104290007FF435AE9DF80400FEF70AF8013CE1D149
:1042A0004FF26051C0F600011D20FEF731F80028E2
:1042B0007FF425AE202383F31188696A4A1F514297
:1042C0004FF01E005141FEF70BF8034600287FF423
:1042D00076AE83F31188202383F31188A969D1F185
:1042E00001014FF01F0038BF0021FDF7F9FF034621
:1042F00000287FF464AE83F31188E968AB68CB1AB9
:10430000594259412020FDF7EBFF00287FF4F7AD1B
:10431000202383F3118840F634004521C2F20000C7
:10432000FDF7BEFBD0F1010138BF00212120FDF7D0
:10433000D7FF00287FF4E3AD40F634004421C2F2F9
:104340000000FDF7ADFBD0F1010138BF00212220B4
:10435000FDF7C6FF00287FF4D2AD40F634004321BC
:10436000C2F20000FDF79CFBD0F1010138BF002133
:104370002320FDF7B5FF00287FF4C1AD40F63400DF
:104380004221C2F20000FDF78BFBD0F1010138BFE2
:1043900000212420FDF7A4FF00287FF4B0AD40F6F3
:1043A00034004121C2F20000FDF77AFB00230146F0
:1043B00083F31188D1F1010138BF00212520FDF7D9
:1043C0008FFF00287FF49BADE968AB68B1EB030C6D
:1043D000DCF1000151EB0C012620FDF781FF0028E4
:1043E0007FF48DAD0524202383F3118840F634003B
:1043F00001A9C2F20000FDF7A3FB0023014683F3ED
:104400001188D1F1010138BF00212720FDF768FF95
:1044100000287FF474AD9DF80400FDF749FF013CCE
:10442000E1D14FF26051C0F600012820FDF770FF86
:1044300000287FF464AD202383F31188696AB1F109
:10444000050EDEF100014FF0290051EB0E01FDF7E2
:1044500047FF034600287FF4B2AD83F31188202381
:1044600083F31188A969D1F101014FF02A0038BF07
:104470000021FDF735FF034600287FF4A0AD83F34C
:104480001188E968AB68CE1A714271412B20FDF7A3
:1044900027FF00287FF433AD40F63400C2F200005D
:1044A000FDF75EFA202383F31188696A4C1F61428D
:1044B0004FF02C006141FDF713FF034600287FF405
:1044C0007EAD83F31188202383F31188A969D1F18C
:1044D00001014FF02D0038BF0021FDF701FF034619
:1044E00000287FF46CAD83F31188202383F31188B7
:1044F0002968AB68CA1A51424FF02E005141FDF7AE
:10450000EFFE034600287FF45AAD83F31188202381
:1045100083F311882968EB68CB1A594259412F203F
:10452000FDF7DEFE4BE500BFAFF30080AFF3008088
:1045300040F6340040F67821C2F20000C2F20001D9
:104540000522FDF7F5B900BFAFF30080AFF300809F
:1045500010B540F65C0488B0C2F2000420466946FB
:1045600001222460FCF7ECFF204604A90222FCF79C
:10457000E7FF2168091B18BF01210120FDF7B0FEEC
:1045800008B108B010BD69462046FCF7F1FF21686C
:10459000091B18BF01210220FDF7A2FE0028F0D15F
:1045A00004A92046FCF7E4FF21680B1B594259413E
:1045B0000320FDF795FE0028E3D14FF64010C0F62A
:1045C00000000721FDF75CF84FF2E061C0F6000142
:1045D0000420FDF79DFED4E7AFF30080AFF3008029
:1045E0004320FDF765BE00BFAFF30080AFF300804E
:1045F0004220FDF75DBE00BFAFF30080AFF3008047
:104600004120FDF755BE00BFAFF30080AFF300803F
:104610004FF0FF30FCF7C4BFAFF30080AFF3008072
:104620004FF0FF30FCF7BCBFAFF30080AFF300806A
:104630004FF0FF30FCF7B4BFAFF30080AFF3008062
:104640002DE9F04305208DB0FCF7C2FF4FF0FF309D
:10465000FDF72EF8B0F10109D9F1000151EB090184
:104660000120FDF73DFE10B10DB0BDE8F0834FF025
:10467000FF30FDF71DF8B0F10408D8F1000151EB4F
:1046800008010220FDF72CFE0028EDD14FF0FF308D
:10469000FCF786FFD0F1010138BF00210320FDF7B0
:1046A0001FFE0028E0D140F63025FDF7D9FEC2F20A
:1046B00000054FF2D023C0F60003A9691B688A6881
:1046C000039340F62026C2F2000644F6F103013AB5
:1046D0000091C0F600034FF4A8710398F76841F207
:1046E0002C14FCF76DFAC2F2000420604FF0FF308A
:1046F000FCF7DEFF07F13201814607F137020420A3
:10470000FDF736FE0028AFD1B9F1010CDCF1000154
:1047100051EB0C010520FDF7E3FD0028A4D14FF07B
:10472000FF30FCF73DFFD0F1010138BF002106202A
:10473000FDF7D6FD002897D1FDF74AFE0520FCF7CE
:1047400047FF4FF0FF30FCF7D3FFB0F1050EDEF16D
:10475000000151EB0E010720FDF7C2FD002883D1B7
:104760004FF0FF30FCF71CFFD0F1010138BF0021F2
:104770000820FDF7B5FD00287FF476AFFDF770FE49
:10478000AB6903989A68009344F6F103013A4FF439
:10479000A871C0F60003D6F80C80FCF711FA20606F
:1047A0004FF0FF30FCF7A4FF08F13201814608F119
:1047B00037020920FDF7DCFD00287FF455AFB9F181
:1047C0000107794279410A20FDF78AFD00287FF42C
:1047D0004BAF4FF0FF30FCF7E3FED0F1010138BFE3
:1047E00000210B20FDF77CFD00287FF43DAF40F653
:1047F0005C0940F66008C2F20009C2F20008FDF749
:10480000E7FD484604A90122C9F80090C8F80080D5
:10481000FCF796FE08A904224046FCF791FEFDF73E
:104820001FFEAB6903989A68F5684FF25C51C0F6B9
:10483000000144F6C103013A0091C0F600034FF4B1
:10484000A871FCF7BDF920600520FCF771FF05F1A8
:10485000320105F137020C20FDF78AFD00287FF4B4
:1048600003AF4FF0FF30FCF79BFED0F1010138BFE2
:1048700000210D20FDF734FD00287FF4F5AEFDF793
:10488000A7FD484604A9FCF773FE404608A9FCF7BB
:104890006FFED9F80010B1EB0904614261410E20AE
:1048A000FDF71EFD00287FF4DFAED8F80010B1EB55
:1048B0000802514251410F20FDF712FDD4E600BF1E
:1048C00008B540F65C000021C2F20000FCF7C8FE0B
:1048D0003220FCF7F5F940F66000C2F2000000213A
:1048E000FCF7BEFE002008BDAFF30080AFF30080F0
:1048F00010B504463220FCF7E3F920460121FCF70D
:104900009FFE002010BD00BFAFF30080AFF300801A
:1049100008B500214FF0FF30FCF72AFFD0F101016C
:1049200038BF00210120FDF7DBFC00B108BD0146C6
:104930004FF0FF30FCF74CFFD0F1010138BF0021F0
:104940000220FDF7CDFC0028F0D101464FF0FF30EA
:10495000FCF76EFFD0F1010138BF00210320FDF705
:10496000BFFC0028E2D10A214FF0FF30FCF700FF26
:10497000D0F1010138BF00210420FDF7B1FC00286F
:10498000D4D10A214FF0FF30FCF722FFD0F1010112
:1049900038BF00210520FDF7A3FC0028C6D10A215D
:1049A0004FF0FF30FCF744FFD0F1010138BF002188
:1049B0000620BDE80840FDF793BC00BFAFF30080C0
:1049C00070B582B0FDF7A4FA01A90020FDF768FBDD
:1049D00010210020FDF7CCFA011C044618BF01216C
:1049E0000120FDF77DFC054608B102B070BD2046F0
:1049F000FDF706FB6FF0FF012846FDF7B9FAD0F18D
:104A0000010138BF00210220FDF76AFC0028ECD12B
:104A100041F2581001A9C2F20000FDF741FB41F23A
:104A200058101021C2F20000FDF7A2FA054641F22B
:104A300058101021C2F20000FDF79AFA044641F224
:104A400058101021C2F20000FDF792FA06462846DF
:104A5000FDF7D6FA2046FDF7D3FA3046FDF7D0FA37
:104A600041F258106946C2F20000FDF719FB421EE0
:104A7000514251410320FDF733FC0028B5D141F2EA
:104A800058101021C2F20000FDF772FA044641F2FC
:104A900058101021C2F20000FDF76AFA054641F2F3
:104AA00058101021C2F20000FDF762FAFDF7A8FAD3
:104AB0002846FDF7A5FA2046FDF7A2FA41F2581064
:104AC0006946C2F20000FDF7EBFA431E5942594114
:104AD0000420FDF705FC002887D141F25810112170
:104AE000C2F20000FDF744FA044641F258101021CA
:104AF000C2F20000FDF73CFA05462046FDF780FAB9
:104B000041F258106946C2F20000FDF7C9FAB0F14F
:104B1000020CDCF1000151EB0C010520FDF7E0FB7C
:104B200000287FF462AF41F258101021C2F2000059
:104B3000FDF71EFA044641F258106946C2F2000021
:104B4000FDF7AEFA012808BF01460CD041F258101B
:104B50006946C2F20000FDF7A3FAB0F1020EDEF1E1
:104B6000000151EB0E010620FDF7BAFB00287FF48F
:104B70003CAF2846FDF744FA2046FDF741FA41F2E2
:104B800058106946C2F20000FDF78AFA461E7142CB
:104B900071410720FDF7A4FB00287FF426AF41F206
:104BA00058101021C2F20000FDF7E2F9054641F26B
:104BB00058101021C2F20000FDF7DAF90446284629
:104BC000FDF71EFA41F258106946C2F20000FDF7E7
:104BD00067FA851E694269410820FDF781FB0028BC
:104BE0007FF403AF41F258102021C2F20000FDF71C
:104BF000BFF9FDF705FA2046FDF702FA41F2581019
:104C00006946C2F20000FDF74BFA013841424141CA
:104C10000920FDF765FB00287FF4E7AE41F258104C
:104C20006946C2F20000FDF73BFA41F258100099C4
:104C3000C2F20000FDF79CF9044641F258106946A3
:104C4000C2F20000FDF72CFAD0F1010138BF0021BB
:104C50000A20FDF745FB00287FF4C7AE2046FDF78C
:104C6000CFF941F258106946C2F20000FDF718FA78
:104C7000421E514251410B20FDF732FB00287FF4C8
:104C8000B4AE9DE80A00CB1A594259410C20FDF7F9
:104C900027FBAAE6AFF30080AFF30080AFF30080FC
:104CA00041F2581040F67821C2F20000C2F2000131
:104CB0004FF4D262FDF74CB9AFF30080AFF3008040
:104CC00000207047AFF30080AFF30080AFF30080A7
:104CD00040F66400C2F200004FF4A8710022FDF714
:104CE00007BA00BFAFF30080AFF30080AFF30080DE
:104CF00038B54FF2D023C0F6000340F664001D68BB
:104D0000C2F2000029460522FDF7FAF9052440F613
:104D10006400C2F20000FDF70BFA011C18BF01216C
:104D20000120FDF7DDFA002846D1013CEFD140F625
:104D30006400C2F20000FDF7FBF9D0F1010138BFB9
:104D400000210220FDF7CCFAB0BB4FF2D024C0F610
:104D5000000440F664002946C2F2000004F1100588
:104D6000FDF7FEF9AC4209D054F8041F40F6640088
:104D7000C2F20000FDF7F4F9AC42F5D1052440F68B
:104D80006400C2F20000FDF7D3F9011C18BF012135
:104D90000320FDF7A5FA78B9013CF0D140F6640094
:104DA000C2F20000FDF7C4F9D0F1010138BF0021C3
:104DB0000420FDF795FA00B138BD40F6640044F6D2
:104DC000C1421021C2F20000C0F60002FDF790F9C6
:104DD00040F66400C2F20000FDF7AAF9D0F101012B
:104DE00038BF00210520BDE83840FDF779BA00BF83
:104DF00070B540F63023C2F2000384B09B6941F2E3
:104E0000881003A9C2F200009D68FDF749F94FF22E
:104E10005C51C0F6000141F2881044F621736A1E0D
:104E20000091C0F600034FF4A871C2F20000FCF735
:104E300007F841F22C14C2F200044FF258512060DE
:104E4000C0F6000141F2881044F62173AA1EC0F694
:104E500000030091C2F200004FF4A871FBF7F0FFCD
:104E6000606041F2881002A9C2F20000FDF718F953
:104E700041F288100299C2F20000FDF779F84FF272
:104E800054510646C0F6000141F2881044F62173E1
:104E9000EA1E0091C0F600034FF4A871C2F20000B0
:104EA000FBF7CEFFA0603046FDF7AAF8216821B1DC
:104EB000616811B1A16849B300210120FDF710FA22
:104EC00008B104B070BDFDF783FA4FF62021C0F69B
:104ED00000010220FDF71CFA0028F2D141F28810EF
:104EE00002A9C2F20000FDF7DBF8421E5142514117
:104EF0000320FDF7F5F90028E3D10299039BCB1AB3
:104F0000594259410420FDF7EBF9DAE7E368002B39
:104F1000D3D12169D1F1010138BF0021CDE700BF14
:104F200008B50078FDF7C4F9002008BDAFF3008094
:104F300041F2881040F67821C2F20000C2F200016E
:104F40004FF4D262FDF704B8AFF30080AFF30080F6
:104F500041F2881040F67821C2F20000C2F200014E
:104F60004FF4D262FCF7F4BFAFF30080AFF30080E0
:104F700040F63023C2F2000370B59B694E4C9D6829
:104F800004F1100654F8041F41F27810C2F2000038
:104F9000FDF7E6F8B442F5D141F2781044F62172FB
:104FA0004FF25C53C0F60002C0F60003691EC2F265
:104FB0000000FBF765FF41F22C14C2F2000444F636
:104FC000217220604FF2585341F27810C0F600026F
:104FD000C0F60003A91EC2F20000FBF751FF44F621
:104FE000217260604FF2545341F27810C0F6000213
:104FF000C0F60003E91EC2F20000FBF741FF44F6D1
:105000002172A0604FF2505341F27810C0F60002B6
:10501000C0F60003291FC2F20000FBF731FF44F67F
:105020002172E0604FF2645341F27810691FC2F2BE
:105030000000C0F60002C0F60003FBF721FF216864
:10504000206149B1616839B1A16829B1E16819B13C
:10505000D0F1010138BF00210120FDF741F900B175
:1050600070BDFDF7B5F94FF62421C0F6000102200E
:10507000FDF74EF90028F3D1042441F27810C2F272
:105080000000FDF755F8011C18BF01210320FDF7B2
:1050900027F90028E4D1013CEFD141F27810C2F2A7
:1050A0000000FDF745F8D0F1010138BF00210420D0
:1050B000BDE87040FDF714B9CCF20008AFF30080F2
:1050C00041F27810C2F200004FF4A8710022FDF7FF
:1050D0000FB800BFAFF30080AFF30080AFF30080E4
:1050E00038B50546FBF7ECFE002403461846AB42F4
:1050F00008BF44F00104FBF7F3FE03460028F5D196
:10510000204638BDAFF30080AFF30080AFF30080DE
:1051100010B540F63023C2F2000382B09B694FF213
:105120005C519A68C0F6000141F2881044F6217380
:10513000013A0091C2F200004FF4A871C0F60003DA
:10514000FBF77EFE04460120A17F0A1A514251411D
:10515000FDF7C6F808B102B010BD2046FBF738FED7
:10516000A17F02200B1A59425941FDF7B9F80028D6
:10517000F1D12046FBF73CFEA17FB1F1010CDCF13F
:10518000000151EB0C010320FDF7AAF80028E2D141
:105190002046FFF7A5FF01460420FDF7A1F80028EF
:1051A000D9D12046FFF79CFF01460520FDF798F86E
:1051B0000028D0D12046FBF71BFEA17FD1F10101D1
:1051C00038BF00210620FDF78BF80028C3D1217FCE
:1051D000D1F1010138BF00210720FDF781F8002837
:1051E000B9D12046FFF77CFF01460820FDF778F88B
:1051F0000028B0D12046FFF773FF01460920FDF7D4
:105200006FF80028A7D13220FBF75AFD217FB1F1BA
:105210000E0EDEF1000151EB0E010A20FDF760F8E1
:10522000002898D12046FFF75BFF01460B20FDF7D1
:1052300057F800288FD12046FFF752FF80F0010178
:10524000C9B20C2002B0BDE81040FDF749B800BF5C
:10525000704700BFAFF30080AFF30080AFF3008072
:1052600008B540F69400C821C2F20000FCF7F0FC3B
:10527000002008BDAFF30080AFF30080AFF30080E3
:1052800000B54FF2D023C0F6000383B019680022A6
:1052900040F6940045F251230092C2F20000C0F69D
:1052A00000030422FCF784FC03B05DF804FB00BF9C
:1052B00008B540F670000021C822C2F20000FCF7D9
:1052C00057FD002008BD00BFAFF30080AFF30080A2
:1052D00000B54FF2D023C0F6000383B01968002256
:1052E00040F6700045F251230092C2F20000C0F671
:1052F00000030422FCF714FD03B05DF804FB00BFBB
:1053000070B5202382B083F3118840F69405C2F271
:1053100000050120A968D1F1010138BF0021FCF787
:10532000DFFF064628BB034683F31188202383F35F
:1053300011884124214640F694000134C2F2000055
:10534000E4B2FCF75DFC452CF4D1002383F3118813
:10535000202383F311886969AA6940F69403914276
:10536000C2F2000300F0298131460220FCF7B8FFA9
:1053700020B1002383F3118802B070BD034683F38C
:105380001188202383F3118840F694000021C2F293
:105390000000FCF735FC043014BF0021012103207C
:1053A000FCF79EFF0028E4D1034683F31188042410
:1053B00040F694004FF0FF31C2F20000FCF748FCC9
:1053C000C0B2FCF775FF013CF2D1202383F31188B2
:1053D000A968D1F1010138BF00210420FCF780FF4A
:1053E0000028C6D1034683F311884FF62421C0F666
:1053F00000010520FCF78CFF0028BDD1202383F39A
:1054000011884124214640F694000134C2F2000084
:10541000E4B2FCF7F5FB452CF4D1002383F31188AB
:105420004FF2D024C0F6000440F694006168C2F246
:1054300000000822FCF734FC061F7142714106206F
:10544000FCF74EFF002897D1202383F31188A96829
:10545000D1F1010138BF00210720FCF741FF0028EE
:1054600087D1034683F31188202383F311884126D3
:10547000314640F694000136C2F20000F6B2FCF765
:10548000BFFB452EF4D1002383F31188666840F6F4
:10549000940031460222C2F20000FCF701FC0238FF
:1054A000414241410820FCF71BFF034600287FF4DE
:1054B00063AF40F6940031460222C2F20000FCF7CE
:1054C000EFFB821E514251410920FCF709FF0028E1
:1054D0007FF452AF202383F31188A968D1F1010131
:1054E0004FF00A0038BF0021FCF7FAFE03460028FF
:1054F0007FF43FAF83F31188202383F3118840F6B4
:1055000094000021C2F20000FCF77AFB40F6940000
:10551000C2F20000FCF75CFB002383F31188202318
:1055200083F31188A968D1F101014FF00B0038BF56
:105530000021FCF7D5FE034600287FF41AAF83F361
:10554000118840F63023C2F2000300219B692068D5
:105550009A68009145F261230132C0F600034FF4CE
:10556000A871FBF72DFB41F22C12C2F2000220239E
:10557000106083F31188A968D1F101014FF00C008C
:1055800038BF0021FCF7ACFE034600287FF4F1AEE3
:1055900083F31188FCF71CFF40F694000A21C2F245
:1055A0000000FCF755FBB0F1FF33594259410D2083
:1055B00002B0BDE87040FCF793BE9E68003618BF8D
:1055C0000126D1E6AFF30080AFF30080AFF3008097
:1055D00070B5202382B083F3118840F67005C2F2C3
:1055E00000056A69AB699A4218BF002100F0198171
:1055F0000120FCF775FE002844D1034683F311888F
:105600004124214640F670000134C2F200004FF000
:10561000FF32E4B2FCF7ACFB452CF2D1202383F33C
:105620001188A968D1F101014FF0020038BF0021B3
:10563000FCF756FE064628BB034683F31188042474
:10564000202383F3118840F67000C2F20000FCF7BB
:10565000BFFB002383F31188C0B2FCF729FE013C95
:10566000EED1202383F311886969AA6940F670039B
:105670009142C2F2000300F0D98031460320FCF7CA
:105680002FFE20B1002383F3118802B070BD0346C2
:1056900083F311884FF62421C0F600010420FCF7A3
:1056A00037FE0028F1D1202383F3118840F67000E3
:1056B000C2F20000FCF78CFB033014BF0021012173
:1056C0000520FCF70DFE0028DCD1034683F311888A
:1056D0004FF2D024C0F6000440F670006168C2F2B8
:1056E000000008220023FCF79BFB061F714271415A
:1056F0000620FCF7F5FD0028C7D1202383F311888D
:10570000A968D1F1010138BF00210720FCF7E8FDAD
:105710000028B7D1034683F3118840F63023C2F244
:10572000000300219B6920689A68009145F2B1232B
:105730000132C0F600034FF4A871FBF741FA41F2C1
:105740002C12C2F200022023106083F31188296911
:10575000EA68AB688A1AD11A081F41424141082001
:10576000FCF7BEFD034600288CD183F31188FCF7BB
:105770002FFE202383F3118840F67000C2F2000050
:10578000FCF7DEFA002383F31188202383F31188CA
:10579000EA682969AB68891ACA1A5142514109203D
:1057A000FCF79EFD034600287FF46CAF83F311885D
:1057B000646840F67000214602220023C2F2000015
:1057C000FCF72EFB831E594259410A20FCF788FD45
:1057D000034600287FF459AF40F670002146C2F21C
:1057E00000000222FCF71CFBB0F1020CDCF100010E
:1057F00051EB0C010B20FCF773FD00287FF445AF43
:10580000202383F31188A968D1F101014FF00C0026
:1058100038BF0021FCF764FD002360B183F31188D9
:1058200033E7A968003118BF0121E1E69E68003620
:1058300018BF012621E783F3118840F6700000218C
:105840000A22C2F20000FCF793FAB0F1FF3EDEF14B
:10585000000151EB0E010D2002B0BDE87040FCF7D5
:105860003FBD00BFAFF30080AFF30080AFF3008017
:10587000704700BFAFF30080AFF30080AFF300804C
:10588000704700BFAFF30080AFF30080AFF300803C
:105890004FF6803010B5C0F600004FF69034C0F6D9
:1058A0000004FCF7CDFC4FF4EA70FCF791FC2046B5
:1058B000FCF7DEFC4FF69830C0F60000FCF7C0FCA9
:1058C0004820FCF785FC2046FCF7D2FC4FF6A830B8
:1058D000C0F60000FCF7B4FC1420FCF779FC20466D
:1058E000FCF7C6FC4FF6B830C0F60000FCF7A8FC89
:1058F0000C20FCF76DFC2046FCF7BAFC4FF6C830D4
:10590000C0F60000FCF79CFC0420FCF761FC20467C
:10591000FCF7AEFC4FF6D830C0F60000FCF790FC68
:105920001020FCF755FC2046FCF7A2FC4FF6E830AF
:10593000C0F60000FCF784FC1020FCF749FC204670
:10594000FCF796FC4FF6F830C0F60000FCF778FC48
:105950000820FCF73DFC2046FCF78AFC4FF6084087
:10596000C0F60000FCF76CFC2420FCF731FC20465C
:10597000FCF77EFC4FF61840C0F60000FCF760FC18
:105980002820FCF725FC2046BDE81040FCF770BC41
:1059900010B5FBF79DFF446B2146FBF7B9FF002CC8
:1059A000F7D1204610BD00BFAFF30080AFF30080F9
:1059B0002DE9F04140F63022C2F200024FF2D0232E
:1059C0009269C0F6000382B09768D3F80080FCF7B4
:1059D00047FD4FF47A70FCF753FD002441F20D159A
:1059E00001372646C2F2000545F67103C0F60003F2
:1059F000009640464FF4A8713A46FBF7E1F82B7841
:105A00000134002BF0D04FF62840C0F60000FCF720
:105A100017FC2046FCF7DCFB4FF63840C0F60000D0
:105A200002B0BDE8F041FCF723BC00BFAFF300803B
:105A300070B50646FCF714FD4FF47A70FCF720FDB4
:105A400041F20D15C2F20005002430460121FBF79A
:105A50001FFF2B780134002BF7D030460021FBF7D5
:105A600017FF204670BD00BFAFF30080AFF300808A
:105A700010B540F63022C2F200024FF2D0239269F4
:105A8000C0F6000382B092681868002145F69113B1
:105A9000013A0091C0F600034FF4A871FBF790F8AB
:105AA00041F22C13C2F200031860FFF7C1FF044655
:105AB000FCF78EFC4FF62840C0F60000FCF7C0FB58
:105AC0002046FCF785FB4FF64440C0F60000FCF78B
:105AD000B7FB6000FCF77CFB4FF65040C0F60000BF
