:020000040800F2
:100000000004002061020008A1030008A103000809
:10001000A1030008A1030008A1030008A103000830
:10002000A1030008A1030008A1030008D1030008F0
:10003000A1030008A1030008A1030008B1040008FF
:10004000A1030008A1030008A1030008A103000800
:10005000A1030008A1030008A1030008A1030008F0
:10006000A1030008A1030008A1030008F16400082F
:10007000216500085165000881650008B165000828
:10008000E165000811660008316A0008A103000854
:10009000A1030008A1030008A1030008A1030008B0
:1000A000A1030008A1030008A1030008A1030008A0
:1000B000A1030008A1030008F16F0008A1030008D4
:1000C000A1030008A1030008A1030008A103000880
:1000D000A103000801720008A1030008A1030008A1
:1000E000A1030008A1030008A1030008A103000860
:0400F000A103000860
:1001000000B583B006F074F8002400F041FA41F223
:10011000D8202146C2F20000C4F2020406F048F9D9
:1001200020464FF4007140F2823206F001FE40F2A8
:10013000823220464FF4806106F0FAFD2369DA0727
:1001400071D441F2902048F28021C2F20000C0F642
:1001500000014FF48064C4F2020406F069F94FF420
:10016000805121832046192206F0E2FD20464FF4FB
:10017000005140F29A2206F0DBFD20464FF4804108
:1001800040F2822206F0D4FD40F29A2220464FF43B
:10019000004106F0CDFD41F25820C2F200000021DE
:1001A00006F056F806F02CFD4FF400600322C4F26E
:1001B0000200012106F0BCFD41F2C42040F6B80166
:1001C000C2F20000C2F2000106F072F8204640219F
:1001D0004FF4817206F0ACFD204680214FF481720D
:1001E00006F0A6FD002241F2503047F2D1330092D2
:1001F000C2F20000C0F600034FF4A87140220024B0
:1002000000F02EFCC4F2020403E04FF4FA7000F098
:10021000A7FC2369DB07F8D541F2D820C2F2000021
:1002200002F0B6F8F1E741F2D820C2F2000002F085
:10023000AFF886E7000000000000000000000000AA
:10024000704700BF00000000000000000000000038
:10025000FEE700BF000000000000000000000000FA
:1002600072B640F60000C2F2000080F30988022353
:1002700083F31488BFF36F8F40F2000340F2004213
:10028000C2F20003C2F2000293420BD2D9431144DE
:1002900021F0030119444FF05532043B43F8042F79
:1002A0008B42FBD140F20043C2F2000383420CD2E6
:1002B00037491A1D891A21F0030119444FF05532AC
:1002C000043B43F8042F8B42FBD107F071F840F652
:1002D000000140F6EC03C2F20001C2F200039942B1
:1002E0000ED2CC431C4424F0030448F2C82004344A
:1002F000C0F600000023C258CA500433A342FAD10A
:1003000040F6F00341F2B442C2F20003C2F200022E
:1003100093420AD2D943114421F003011944002227
:10032000043B43F8042F8B42FBD1FFF789FF40F2D7
:10033000F40540F2F403C0F60005C0F600039D4248
:100340000BD2EE431E44B6080136043D00240134AE
:1003500055F8043F9847B442F9D1FFF7D1FE40F277
:10036000F40540F2F403C0F60005C0F600039D4218
:100370000BD2EE431E44B6080136043D002401347E
:1003800055F8043F9847B442F9D1FFF761FF00BF29
:100390000308002000000000000000000000000032
:1003A000FEE700BF000000000000000000000000A9
:1003B00072B6FEE700000000000000000000000030
:1003C00000F0CEFA00DF00BF0000000000000000D7
:1003D000EFF30983203383F30988002383F3118823
:1003E000704700BF00000000000000000000000097
:1003F00008B54FF440724FF46D43CEF20003C0F2E3
:10040000FA52002199600720DA60102100F098F874
:100410000A20202100F094F8BDE808400B2080213C
:1004200000F08EB800000000000000000000000096
:10043000202383F311884FF46D43CEF200035B68F1
:1004400013F400631FD0EFF30982A2F1200383F3BA
:10045000098840F62823C2F200034FF080709969A2
:1004600042F8040CC87F88B118688B68816899428B
:1004700094BF0023012393B140F2C133C0F60003BF
:1004800042F8083C704783F31188704718688B68FE
:100490008168994234BF00230123002BECD140F244
:1004A000C433C0F6000342F8083C70470000000067
:1004B00008B5202383F3118800F0A2F8002383F30A
:1004C0001188BDE80840FFF7B3BF00BF000000007F
:1004D0002DE9F04FC1F80CD0D0F80CD0BDE8F08F6A
:1004E000002383F311882846A04700F0A1FB704742
:1004F00000F0030330B4DB00FF259D40994001224A
:1005000000F01F039A4020F0030404F1604404F556
:100510006144D4F800334009800023EA050300F168
:10052000604000F561400B43C4F80033C0F88021FF
:1005300030BC0260704700BF0000000000000000F7
:1005400000F00303DB00FF229A40994020F00300F3
:1005500000F1604000F56D40836923EA02030B431C
:1005600083617047000000000000000000000000F0
:1005700040F62823C2F200039A6947F2E043C0F62E
:1005800000039361FEE700BF0000000000000000D0
:1005900010B582B0FFF72CFF00F0EAF800F068F821
:1005A00001F0DEFB01F024FC40F6F0004021C2F235
:1005B000000000F0E5F940F62823C2F20003012212
:1005C00098610277002383F3118862B640F62823EE
:1005D000C2F200039C6947F2F042C0F6000200211B
:1005E00040F6381040F27153A261C0F6000300914A
:1005F0000122E021C2F2000000F032FA02B010BD88
:1006000070B540F62823C2F200039B69DA7F0AB175
:10061000013ADA771A6A40F618210132C2F2000173
:100620001A62CB680A6801338A42CB6019D0966897
:10063000013E9660AEB90D461068D4680860D66079
:100640000023416083F311881069A047202383F3BE
:1006500011882A6840F618219368C2F20001002B25
:10066000EAD070BD000000000000000000000000A3
:1006700040F61823C2F200034FF0FF3100225B6006
:100680001B609960DA607047000000000000000005
:1006900070B440F61826C2F200063468A5680361FB
:1006A000A942C26004D92468491BA5688D42FAD3C7
:1006B0006368B442046043606060186081601EBF7C
:1006C000A368C1EB0301A16070BC7047000000008B
:1006D000036840F61822C2F2000293421FBF9968D5
:1006E000826852189A6042680021136003685A6059
:1006F000C160704700000000000000000000000022
:1007000010B4202383F31188037F0D2B11D8DFE869
:1007100003F029101007100B101010101010100B00
:10072000436A9A6801329A6090E80C001A60026885
:1007300053604FF0FF34002340F628228168446262
:100740000377C2F20002126893688B42FBD25168B1
:100750000023026041605060086083F311885DF8F7
:10076000044B7047002383F311885DF8044B7047F6
:1007700040F62823C2F2000300225B601B605B612D
:100780001B619A60704700BF00000000000000007D
:10079000002240F62823816810B4C2F20003044608
:1007A00002771B689A688A42FBD25A682046236007
:1007B00062605C6014605DF8044B704700000000EC
:1007C00040F62823C2F2000370B41A6899691468CD
:1007D000142601250877CE77636015771C601046D4
:1007E00070BC9A61FFF774BE0000000000000000BA
:1007F00030B54B1C87B0054617D040F62824C2F20E
:10080000000440F20172A36901A8C0F60002FFF7DC
:100810003FFF2846FFF7D4FF049B13B101A8FFF761
:1008200057FFA369586A07B030BDFFF7C9FF40F60C
:100830002824C2F20004A369586A07B030BD00BF83
:10084000F0B440F62827C2F20007D7F818C0856830
:10085000DCF808400646A54241620DD800223B461E
:1008600002771B689A689542FBD95A6833607260B8
:100870005E601660F0BC704700238CF81C303B466D
:100880001B689A689442FBD95A680124CCF800305E
:10089000CCF80420C3F804C0C2F800C03477304656
:1008A000BE616146F0BCFFF713BE00BF0000000050
:1008B00040F62822C2F200021068F0B4036895697D
:1008C000012714260021AC6813605A60077703469D
:1008D0009061EE77297700E01B689A68A242FBD20C
:1008E0005A6829462B606A605D601560F0BCFFF7AE
:1008F000EFBD00BF0000000000000000000000008D
:1009000040F62822C2F20002106870B403689569AC
:1009100001260021AC6813605A6006770346906197
:10092000297700E01B689A68A242FBD85A682946DA
:100930002B606A605D60156070BCFFF7C9BD00BFC9
:1009400040F62823C2F200031A689B6992689B68EC
:100950009A4200D87047FFF7D3BF00BF00000000E5
:1009600040F62823C2F200039B69DB7F0BB1FFF73F
:10097000C7BFFFF79DBF00BF0000000000000000E0
:100980002DE9F00340F62822C2F200025569002446
:1009900000F12C064FF002094FF0140800F128076F
:1009A0004FF0010C45610261816080F81C9080F875
:1009B0001F804477C463846304628461016450616E
:1009C00080F81EC0286187620663C662BDE8F00336
:1009D000704700BF000000000000000000000000A1
:1009E0002DE9F00F40F62825C2F20005A1F1240CF4
:1009F000696982B001910A9900EB0C07C76040F267
:100A0000E14640F80C3079600199002300F12C0B8D
:100A1000C0F600064FF0020A4FF014094FF001082B
:100A200000F1280C3E62826005614161026480F839
:100A30001CA080F81F9080F81E8043776861C36314
:100A40008363036283610861C0F828C0C0F830B0D6
:100A5000C0F82CB002B0BDE8F00F704700000000F5
:100A60002DE9F0479E460446202383F3118840F683
:100A70002826A1F124031844C2F20006776940F247
:100A8000E141E06044F803E0089B002504F12C0EEE
:100A900004F1280CC0F600014FF0020A4FF01409CF
:100AA0004FF0010843600162A26026616761226421
:100AB00084F81CA084F81F9084F81E806577746108
:100AC000E563A5632562A56120463C612946C4F81B
:100AD00028C0C4F830E0C4F82CE0FFF7B1FE2B4684
:100AE00083F311882046BDE8F08700BF00000000B6
:100AF00010B5202383F3118840F62823C2F20003A7
:100B00009B691C6C99688C4201D0814200D298602C
:100B10001864FFF715FF002383F31188204610BDEA
:100B200010B52023044683F311880021FFF788FEC7
:100B3000002383F31188204610BD00BF0000000091
:100B4000202383F31188427F002342F0040242777E
:100B500083F31188704700BF000000000000000010
:100B600008B50146202383F311880620FFF740FED5
:100B7000002383F3118808BD00000000000000007E
:100B800008B5202383F3118840F61823C2F200032E
:100B9000D968411A02D00620FFF72AFE002383F30A
:100BA000118808BD000000000000000000000000E7
:100BB00008B5202383F3118840F62823C2F20003EE
:100BC0001A689B6992689B689A4201D3FFF770FE8E
:100BD000002383F3118808BD00000000000000001E
:100BE00038B540F62823C2F200039C69254655F823
:100BF000283F6062AB4207D01A681846A262FFF72E
:100C0000C7FDA36AAB42F7D1637F9B0704D122697A
:100C100063691A61226953610E20BDE83840FFF70D
:100C2000CFBD00BF00000000000000000000000079
:100C3000202383F31188FFF7D3BF00BF000000001B
:100C400038B50446202383F31188037F0E2B0AD086
:100C500040F62823C2F20003826A9B6907201A60CB
:100C6000A362FFF7ADFD656A002383F31188204678
:100C700000F016F8284638BD000000000000000013
:100C8000202383F31188827F00230132827783F34C
:100C90001188704700000000000000000000000004
:100CA0000146202383F31188827F0023013AD2B2C8
:100CB000827783F3118812B9037F0E2B00D070471F
:100CC000437F03F00303012B02D0022B07D07047B0
:100CD000026943691A610A69536101F0F1B8026956
:100CE0004369406C1A610A69536101F099B900BF08
:100CF00070B582B016461C460D4601F099F898B1C1
:100D0000202383F31188069B29460093324623460D
:100D1000FFF766FE0123437700210446FFF790FDAD
:100D2000002383F31188204602B070BD000000004C
:100D3000F0B583B00F4614461E46054601F058F93B
:100D400098B1202383F3118869683A4623460096B8
:100D5000FFF746FE02234377456400210446FFF770
:100D60006FFD002383F31188204603B0F0BD00BF60
:100D7000202383F3118840F62823C2F20003186968
:100D80000023827F0132827783F31188704700BF8E
:100D900010B5202383F3118840F628230469C2F29A
:100DA00000039C4217BFA37F00240133A3770023D5
:100DB00083F31188FFF774FF204610BD0000000088
:100DC000406000608160704700000000000000008B
:100DD00070B5856804460135002D81600BDC6FF02D
:100DE000010660680135436863601C60FFF7D0FC52
:100DF000012D4662F5D170BD00000000000000002A
:100E000008B5202383F31188FFF7E2FFFFF798FD71
:100E1000002383F3118808BD0000000000000000DB
:100E2000826810B5013A002A0346826001DB002087
:100E300010BD40F62824C2F20004A26903205362C8
:100E40005968136051605A600A60FFF7B9FCA369E2
:100E5000586A10BD00000000000000000000000003
:100E600008B5202383F31188FFF7DAFF002383F30B
:100E7000118808BD00000000000000000000000014
:100E80000346806810B4421E002A9A60A8BF002062
:100E900002DB5DF8044B704779B140F62822C2F2BC
:100EA00000029269032053625C6882E818005A606D
:100EB00022605DF8044BFFF79BBC98604FF0FF3059
:100EC000E7E700BF00000000000000000000000095
:100ED00008B5202383F31188FFF7D2FF002383F3A3
:100EE000118808BD000000000000000000000000A4
:100EF00008B50246202383F3118883680133002B51
:100F0000836003DD002383F3118808BD006800219E
:100F1000036813605A60FFF793FC002383F3118882
:100F200008BD00BF0000000000000000000000003D
:100F3000826810B40132002A0346826002DD5DF847
:100F4000044B7047026800241168104619604B601A
:100F500054625DF8044BFFF71BBC00BF00000000AB
:100F600070B50C1E054611DD002601E0013C0DD0D8
:100F7000AB680133002BAB60F8DC286803682B609A
:100F80005D60FFF705FC013C4662F1D170BD00BF1A
:100F900010B5024682B0202383F3118883680133A1
:100FA000002B836020DD8B68013B002B8B6007DB0F
:100FB000FFF7C6FC0020002383F3118802B010BDA8
:100FC00040F62823C2F200039C694B68032084E8A2
:100FD0000A004C601C606162FFF7F2FB606A00234C
:100FE00083F3118802B010BD0068036813605A6073
:100FF0000191FFF7CDFB002343620199D3E700BFC6
:101000000023406000608360704700BF0000000064
:10101000F8B5826840F62823C2F2000305469C69B1
:10102000002A54D0A1689368994206D9137F916031
:10103000042B33D0052B1DD09BB12B4603E09968C0
:10104000A268914202D31B689D42F8D15A6823607E
:1010500062605C60146065620420BDE8F840FFF7E0
:10106000AFBB92E80A001960104612685360FFF7A0
:101070008FFBE2E713685068566A036017683346CF
:10108000786002E09868884202D31B689E42F9D1DA
:101090005968136051605A600A60CEE7136850685F
:1010A000566A036017683346786002E098688842A1
:1010B00002D31B689E42F9D15968136051605A608F
:1010C0000A60B268A16893688B42AFD3B5E7E36B5F
:1010D0008460C360E063F8BD000000000000000011
:1010E00008B5202383F31188FFF792FF002383F3D1
:1010F000118808BD00000000000000000000000092
:101100000246202383F31188836800201BB100234B
:1011100083F31188704740F62823C2F200039B69CD
:101120000120D96B9360D160DA63002383F31188C7
:10113000704700BF00000000000000000000000039
:1011400038B540F62823C2F200039869202383F3C0
:101150001188C46B2568E368A542C3631CD0016C89
:101160004BB11A689A4203D09268914238BF114637
:10117000DB68002BF5D12B68EA6B81602360284681
:101180005C600021A560E260EC63FFF759FB00237F
:1011900083F31188204638BD0023A360002383F326
:1011A0001188204638BD00BF00000000000000008C
:1011B00038B540F62823C2F200039869C46B25684D
:1011C000E368A542C36318D0016C4BB11A689A4218
:1011D00003D09268914238BF1146DB68002BF5D1ED
:1011E000EA6B2B688160236028465C60A560E26042
:1011F000EC63FFF7CDFA204638BD0023A3602046FC
:1012000038BD00BF0000000000000000000000002A
:1012100040F62823C2F2000370B59C69202383F3B3
:101220001188E36BC3B100261A68D9689A42E1635A
:1012300008BF9E6009D0D56B1168104619604B60DD
:101240009A60DD60D363FFF7A3FAE36B002BEBD169
:10125000236CA360FFF774FB002383F3118870BD38
:1012600040600060704700BF000000000000000008
:1012700008B50246202383F311880068904205D008
:101280000368002113605A60FFF7DAFA002383F342
:10129000118808BD000000000000000000000000F0
:1012A00008B503460068984206D002681A60536089
:1012B000FFF76EFA0023436208BD00BF0000000084
:1012C00038B504460068A0420AD06FF001050368F3
:1012D00023605C60FFF75CFA45622068A042F6D1AB
:1012E00038BD00BF0000000000000000000000004A
:1012F00008B5202383F31188FFF7E2FFFFF720FBF7
:10130000002383F3118808BD0000000000000000E6
:1013100040F6282370B5C2F200039C690546FFF72A
:1013200047FF656206462B4603E09968A268914232
:1013300002D31B689D42F8D15A6805202360626081
:101340005C601460FFF73CFA646A3046FFF760FEA9
:10135000204670BD000000000000000000000000FA
:1013600008B5202383F31188FFF7D2FF002383F30E
:10137000118808BD0000000000000000000000000F
:101380002DE9F04106468846FFF712FF40F6282374
:10139000C2F200039D69074633466E6203E09C6813
:1013A000AA68944202D31B689E42F8D15A6841460B
:1013B0002B606A6005205D601560FFF719FA431C19
:1013C000044602D03846FFF723FE2046BDE8F081F0
:1013D00008B5202383F31188FFF7D2FF002383F39E
:1013E000118808BD0000000000000000000000009F
:1013F00070B4202383F3118840F62823C2F200033F
:101400009E69056800240D60234601604E608A6075
:10141000CC6083F3118870BC704700BF00000000EF
:10142000202383F31188024602E0994207D01A462E
:1014300013688342F9D1002383F3118870470B6846
:101440001360002383F31188704700BF0000000081
:1014500010B4202383F3118840F62823C2F200033E
:10146000996900238A6B22EA00048C6383F3118854
:1014700010405DF8044B70470000000000000000C1
:10148000202383F3118840F62823C2F200039A69CF
:101490000023916B0843906383F31188704700BF6A
:1014A00008B5826B037F1143082B81630BD0092B96
:1014B00000D008BD436A19408B42FAD1FFF768F9A2
:1014C0000023436208BD436A1942F7D108BD00BF3B
:1014D00070B504680546A0420E4609D0E36860680E
:1014E0003343E360A168FFF7DBFF2468A542F5D131
:1014F00070BD00BF00000000000000000000000000
:1015000008B5202383F31188FFF7CAFFFFF718FA05
:10151000002383F3118808BD0000000000000000D4
:1015200008B5202383F31188FFF7D2FFFFF708FAED
:10153000002383F3118808BD0000000000000000B4
:10154000F8B50D46074689B10024012601E00134B3
:1015500065B106FA04F32B42F9D057F8242020464F
:1015600025EA030501349047002DF2D1F8BD00BFF4
:1015700038B540F62823C2F200039C6905462023B3
:1015800083F31188A36B10EA030206D1606208207E
:10159000FFF716F9A36B05EA03025042104023EA55
:1015A0000003A363002383F3118838BD000000000B
:1015B00038B540F62823C2F200039C690546202373
:1015C00083F31188A36B184006D108206562FFF7EA
:1015D000F7F8A36B05EA030023EA0003A3630023E3
:1015E00083F3118838BD00BF000000000000000038
:1015F00038B540F62823C2F200039D690446202333
:1016000083F31188AB6B00EA0302824204D0686264
:101610000920FFF7D5F8AB6B23EA0403AB63002383
:1016200083F31188204638BD000000000000000050
:1016300040F62822C2F2000270B5202304469569C4
:1016400083F31188AA6B10EA02060ED121B90B466A
:1016500083F31188002070BD68620820FFF7C8F886
:1016600000280BDBAA6B04EA02067042304022EA33
:101670000002AA63002383F3118870BD334683F30D
:101680001188002070BD00BF0000000000000000B5
:1016900040F62822C2F2000270B520230446956964
:1016A00083F31188AA6B10EA02060ED121B90B460A
:1016B00083F31188002070BD68620820FFF798F856
:1016C00000280ADBAA6B04EA020622EA0602AA63E1
:1016D000002383F31188304670BD334683F31188AD
:1016E000002070BD000000000000000000000000AD
:1016F00040F62822C2F2000238B50446956920233C
:1017000083F31188AB6B00EA030282420CD021B94B
:101710000B4683F31188002038BD68620920FFF76B
:1017200067F8002808DBAB6B23EA0403AB630023F4
:1017300083F31188204638BD002383F311880020ED
:1017400038BD00BF000000000000000000000000E5
:1017500038B540F62823C2F200039C69202383F3A6
:10176000118800F12C02057F6262036B0C2D61630E
:1017700084E80C0004631C6007D00A20FFF720F8FF
:10178000606A002383F3118838BDFFF701F8F4E79E
:1017900010B5202383F3118840F62824C2F20004F8
:1017A000A3691A4652F82C0F904208D001680B2406
:1017B000D9624A600023047783F3118810BD0C209E
:1017C000FEF7FEFFA369D86A03F12C02EEE700BF23
:1017D00008B5202383F31188FFF732F8002383F341
:1017E000118808BD0000000000000000000000009B
:1017F00010B50B4601EB820141600446C360836073
:10180000036011461C30FFF7DBFA04F110000021E1
:10181000BDE81040FFF7D4BA00000000000000004F
:1018200010B52023044683F3118803684168C36020
:10183000C91A836089101C30FFF7CAFA04F110003E
:101840000021FFF7C5FAFFF77BF8002383F3118827
:1018500010BD00BF000000000000000000000000FC
:1018600070B504460E461C301146FFF709FB0546CD
:1018700078B9A2686168131D8B42A36028BF2368F2
:10188000166004F1100028BFA360FFF751FBFFF7BB
:1018900057F8284670BD00BF00000000000000009F
:1018A00008B5202383F31188FFF7DAFF002383F3C1
:1018B000118808BD000000000000000000000000CA
:1018C00038B5436A002B12DD84684568221D013B50
:1018D000AA42436228BF03688260216000F11000C1
:1018E00028BF40F8083CFFF723FB002038BD4FF02D
:1018F000FF3038BD000000000000000000000000C4
:1019000070B504460E461C301146FFF7B9FA05467D
:1019100080B9E3682268043B9342E36038BF6368A0
:1019200004F110003CBF043BE3601E60FFF700FBC6
:10193000FFF706F8284670BD000000000000000018
:1019400008B5202383F31188FFF7DAFF002383F320
:10195000118808BD00000000000000000000000029
:10196000426A10B5002A13DDC3680468043BA34231
:10197000C36038BF436802F1FF3238BF043B4262A4
:1019800038BFC36019601030FFF7D2FA002010BDD5
:101990004FF0FF3010BD00BF00000000000000004D
:1019A00070B504460E4610301146FFF769FA054639
:1019B00080B9E3686268196804339342E36028BF22
:1019C0002368316004F11C0028BFE360FFF7B0FA20
:1019D000FEF7B6FF284670BD0000000000000000C2
:1019E00008B5202383F31188FFF7DAFF002383F380
:1019F000118808BD00000000000000000000000089
:101A0000836910B5002B13DD5A1EC36882614268DA
:101A10001C6804339342C36028BF03680C6000F164
:101A20001C0028BF40F8103CFFF782FA002010BDD0
:101A30004FF0FF3010BD00BF0000000000000000AC
:101A400010B4024679B140F62823C2F200039B6924
:101A50000D205A62546883E81400536023605DF8D7
:101A6000044BFEF7C5BE4FF0FF305DF8044B7047E6
:101A700030B4029C00250A44856004620261406023
:101A8000006041618161C160C36130BC704700BFCB
:101A900038B50446C36800680022A042A2606361B2
:101AA000A3610AD06FF00105036823605C60FEF754
:101AB0006FFE45622068A042F6D138BD00000000EC
:101AC00003464269806910B582429C681BD0501C55
:101AD000013458619C60117059691A6991420BD2A6
:101AE000186898420DD002681A605360FEF750FEE5
:101AF00000234362184610BD1868DA6898425A619C
:101B0000F1D1002010BD002CE1D06FF0030010BD1A
:101B100070B5202304460E4683F31188C3692BB1A8
:101B2000984703E0FFF78CFF002815DBA5682046E7
:101B30003146002DF6D0A2692169531C8B42A36166
:101B400005F1FF3528BFE368A560107828BFA361C1
:101B5000002383F3118870BD2B4683F3118870BD79
:101B60002DE9F0471E460446D0F81C80202383F35D
:101B700011884FF0000901EB020A4F1CB8F1000F69
:101B800005D02046C04702E0FFF75AFFF0B9A5682C
:101B900020463146002DF7D0A369013D5A1CA261B1
:101BA000A5601B7807F8013C2369A2699A4224BF0B
:101BB000E368A361002383F31188574509F1010904
:101BC00007D0202383F311880137D7E72B4683F30F
:101BD00011884846BDE8F0870000000000000000C2
:101BE00030B4029C8D180561046240600060826020
:101BF00041618161C160C36130BC70470000000079
:101C000038B502690446C3680068D21AA04263610D
:101C1000A361A2600AD06FF00105036823605C60D5
:101C2000FEF7B6FD45622068A042F6D138BD00BF80
:101C3000F8B504460F461646202383F3118803E0C7
:101C4000FFF7FEFE002819DBA56820463146002D6F
:101C5000F6D06369013D5A1C6261A5601F7023695B
:101C600062699A4224BFE3686361E3690BB120466D
:101C70009847002383F311880020F8BD2B4683F397
:101C80001188F8BD00000000000000000000000006
:101C90008269416910B591420346846816D018697B
:101CA0000134511C9C609961814214780BD21868F0
:101CB000984206D002681A605360FEF769FD00235F
:101CC0004362204610BDDA689A61F0E7002CE6D046
:101CD0006FF0020010BD00BF000000000000000017
:101CE0002DE9F84F9A4604460E461746D0F81C9048
:101CF000202383F311884FF00008A56806F1010B3B
:101D000020466B1EDDB16269A360531C63613378AA
:101D10001370236962699A4224BFE3686361B9F171
:101D2000000F00D0C847002383F31188013F08F15A
:101D300001080DD0202383F311885E46DDE720469D
:101D40005146FFF77DFE0028D7D02B4683F311883C
:101D50004046BDE8F88F00BF000000000000000012
:101D600044F200010848C2F2000140F6442240F665
:101D7000482321F00701C2F2000220F00700C2F25E
:101D80000003116018607047BB14002000000000C1
:101D9000202383F3118840F6482340F64422C2F200
:101DA0000003C2F2000219681268073020F0070031
:101DB000521A90429BBF401818600020084600232A
:101DC00083F31188704700BF00000000000000008E
:101DD00040F6442240F64823C2F20002C2F2000359
:101DE00010681B68C01A7047000000000000000067
:101DF00040F65023C2F2000341F691520021C0F692
:101E0000000203F110001A609960D960FFF7F8B87A
:101E10000023083A81600360C36010304A600B60A1
:101E2000FFF7EEB800000000000000000000000016
:101E3000F8B540F65026C2F20006002818BF064644
:101E4000073106F1100021F0070506F10804FFF73D
:101E500047F903E05A68954211D91C462368002BC4
:101E6000F8D1FFF76DF933681BB305F10800984707
:101E7000F8B10660456000F108042046F8BD05F1A0
:101E80000801914208D91A6822601C4644F8086B80
:101E9000FFF756F92046F8BD4FF6F870CFF6FF7001
:101EA0001F68401B10445A185F50506022605D60EC
:101EB000EBE70024E1E700BF0000000000000000A5
:101EC00070B5064650F8080CA6F1080400F10805A4
:101ED0001030FFF705F92B46AB4204D0A34202D3E2
:101EE0001B68AB42FAD11A681AB1944201D3134667
:101EF000F2E756F8041C46F8082C1C6001F10802B1
:101F000056F8085CA018A84209D05A6802F10801E6
:101F100019448C4211D0BDE87040FFF711B94068F8
:101F2000A2580144083146F8041C46F8082C5A68A7
:101F300002F1080119448C42EDD156F8040C56F810
:101F4000081C0244083283E80600BDE87040FFF731
:101F5000F7B800BF00000000000000000000000013
:101F600038B540F65023C2F20003002814BF0446DF
:101F70001C4604F110000D46FFF7B2F8A3686BB1E0
:101F80000022144658681B6801340244002BF9D122
:101F900005B12A60FFF7D4F8204638BD1A461C4622
:101FA000F6E700BF00000000000000000000000095
:101FB0000023416082600360704700BF00000000A2
:101FC00010B462B1202383F31188046800230C60ED
:101FD000016083F311884368013A1944F2D15DF836
:101FE000044B7047000000000000000000000000EB
:101FF00008B50246202383F31188006828B10368DE
:102000001360002383F3118808BD9368002BF8D078
:1020100050689847002383F3118808BD0000000032
:10202000202383F31188026800230A60016083F390
:102030001188704700000000000000000000000050
:1020400041F20513C2F2000301221A70704700BF6B
:1020500070B541F23816C2F200064C2530682D21C9
:10206000036841F238149B689847013DC2F20004AE
:10207000F4D1206847F230510368C0F600011B68B4
:102080000222984770BD00BF000000000000000061
:1020900070B584B048B30DF101054CF6CD462B4622
:1020A000CCF6CC46A6FB0012D20802EB8201A0EBD4
:1020B00041013031C9B203F8011C1C4610460133FE
:1020C000002AEFD16B469C420DD941F23816C2F27C
:1020D000000602E014F8021C013C306803689B68AB
:1020E0009847AC42F6D104B070BD41F23813C2F249
:1020F00000031868302103689B68984704B070BDDE
:1021000038B5017861B141F238150446C2F20005D4
:10211000286803689B68984714F8011F0029F7D1C5
:1021200038BD00BF000000000000000000000000FB
:1021300038B5017841F23815A1B10446C2F2000564
:10214000286803689B68984714F8011F0029F7D195
:10215000286847F230510368C0F600011B6802226C
:10216000984738BDC2F20005F2E700BF000000004A
:1021700010B4202383F3118841F20812C2F2000246
:10218000116800234C1C0870146083F311885DF8FB
:10219000044B704700000000000000000000000039
:1021A00010B4002279B941F2041441F20C1141F249
:1021B00000130122C2F20004C2F20001C2F20003C5
:1021C00022700A70186010465DF8044B704700BF1B
:1021D000F0B441F2081641F23C17C2F20006C2F216
:1021E000000735683B4605E013F8014B11F8012B59
:1021F000944207D1AB42F7D30A781AB93760104638
:10220000F0BC704741F2041441F20C1141F200138A
:102210000122C2F20004C2F20001C2F200032270E5
:1022200018600A701046F0BC704700BF0000000044
:1022300040F61823C2F20003DB68521A591A914281
:1022400010B438BF00220FD341F2041441F20C1134
:1022500041F200130122C2F20004C2F20001C2F2F4
:10226000000322700A70186010465DF8044B704736
:1022700038B5064C04F1140554F8043F18460BB168
:10228000FEF75EFCAC42F7D138BD00BF2011002044
:1022900070B541F22414C2F2000404F114050026C2
:1022A00054F8043B18461BB1FEF7CAFC44F8046C12
:1022B000AC42F5D170BD00BF00000000000000007E
:1022C0004FF47A7303FB00F040F62823C2F20003B8
:1022D00044F6D352411EC1F2620210B49C69A2FBC3
:1022E0000131226A501C00EB91118A42236A0BD201
:1022F0008B422CBF00200120934238BF00200028D1
:10230000F3D15DF8044B7047934234BF00200120A5
:102310008B4238BF40F001000028E6D1F1E700BF52
:1023200008B50120FEF71CFC40F61823C2F200039A
:10233000D86808BD00000000000000000000000098
:1023400008B541F20513C2F2000300221A702023DF
:1023500083F311884FF47A7303FB00F044F6D353F0
:102360000138C1F26203A3FB002341F21010990966
:1023700042F241020131C2F20000C0F60002002325
:10238000FEF786F9002383F3118808BD00000000E2
:102390002DE9F04F41F23814C2F20004206047F6F4
:1023A0009C6085B0C0F60000FFF7C2FE47F23450D3
:1023B000C0F60000FFF7BCFE47F25050C0F6000028
:1023C00047F25455FFF7B4FEC0F600052A212068F5
:1023D00003689B68984715F8011F0029F7D147F259
:1023E000B450C0F6000047F2BC55FFF7A1FEC0F69E
:1023F00000052A21206803689B68984715F8011F8B
:102400000029F7D147F2D050C0F6000047F2E85556
:10241000FFF78EFEC0F600052A21206803689B683E
:10242000984715F8011F0029F7D147F2FC50C0F674
:10243000000047F20865FFF77BFEC0F600052A2181
:10244000206803689B68984715F8011F0029F7D199
:1024500047F21C60C0F6000047F22465FFF768FEF3
:10246000C0F600052A21206803689B68984715F884
:10247000011F0029F7D147F23860C0F6000047F28B
:102480004465FFF755FEC0F600052A212068036861
:102490009B68984715F8011F0029F7D147F258604B
:1024A000C0F6000047F27065FFF742FEC0F6000577
:1024B0002A21206803689B68984715F8011F0029A6
:1024C000F7D147F28460C0F6000047F2B065FFF72D
:1024D0002FFEC0F600052A21206803689B689847F4
:1024E00015F8011F0029F7D147F2C460C0F60000BB
:1024F0000191FFF71DFE47F69C6041F20C12C0F6F9
:1025000000000392FFF714FE039B019947F2F0626B
:10251000C2F2000347F2607741F2081541F23C191C
:10252000C0F60002039319708A460292C0F60007B3
:10253000C2F20005C2F200090AF1010A4FF00008D8
:1025400057F8043B002B00F0A28047F2685BFFF7CE
:102550007FFDC0F6000B2D21206841F2381602687D
:10256000C2F20006926890471BF8011F0029F3D1C0
:102570005046FFF78DFD30682E21036808F10108F1
:102580009B68984747F2D8664046FFF781FDC0F642
:1025900000062021206803689B68984716F8011FF1
:1025A0000029F7D157F8043C1E68317839B120680A
:1025B00003689B68984716F8011F0029F7D147F276
:1025C0007850C0F60000FFF7B3FDC820FEF7C8FA48
:1025D00041F22413C2F2000357F804BC00221A602F
:1025E0005A609A60DA601A6141F20416DBF804302E
:1025F000C2F20006C5F80090327003B19847DBF8CC
:102600000C309847DBF8083003B19847FFF740FEDD
:102610003378002B65D047F27C56C0F600062D219A
:10262000206803689B68984716F8011F0029F7D1B6
:1026300041F20013C2F20003186847F2DC66FFF7AC
:1026400027FDC0F600062021206803689B68984794
:1026500016F8011F0029F7D12B684B4588BF2A4E79
:102660000AD9206816F8011C03689B6898472B68F4
:102670009E4206F10106F4D347F29450C0F60000E2
:10268000FFF756FD57F8043B002B7FF45EAF029A2C
:1026900052F8047F0292002F7FF44EAFFFF7D8FC70
:1026A00047F69C60C0F6000047F2E065FFF740FD8A
:1026B000C0F600054621206803689B68984715F816
:1026C000011F0029F7D1039A13788BB947F2A45060
:1026D000C0F60000FFF72CFD039B187805B0BDE89D
:1026E000F08F47F29850C0F60000FFF721FD27E772
:1026F00047F2AC50C0F60000FFF71AFD039B1878B4
:1027000005B0BDE8F08F00BF3D11002000000000C3
:10271000F0B540F62827C2F20007BB6947F2105611
:102720009A6842F2F17547F2947183B0C0F60006E0
:10273000C0F60005C0F600012B4600913068053A4E
:102740004FF4A871FEF78CF9BB6941F224149A6822
:1027500047F280717368C2F20004C0F60001206085
:102760000091043A18464FF4A8712B46FEF778F909
:10277000BA69B368926847F28471C0F6000160607C
:102780000091033A18464FF4A8712B46FEF768F9FA
:10279000BA69F368926847F28871C0F60001A060D8
:1027A0000091023A18464FF4A8712B46FEF758F9EB
:1027B000BA693369926847F28C71C0F60001E06033
:1027C000013A009118464FF4A8712B46FEF748F9DC
:1027D0002061FFF75DFD47F29071C0F60001012016
:1027E00003B0BDE8F040FFF7F3BC00BF00000000FD
:1027F00008B50078FFF7BCFC002008BD0000000011
:10280000F0B540F62827C2F20007BB6947F2105620
:102810009A6842F2F17547F2807183B0C0F6000603
:10282000C0F60005C0F600012B4600917068043A1E
:102830004FF4A871FEF714F9BB6941F224149A68A9
:1028400047F294713368C2F20004C0F60001606080
:102850000091053A18464FF4A8712B46FEF700F98F
:10286000BA693369926847F28C71C0F60001206042
:102870000091013A18464FF4A8712B46FEF7F0F884
:10288000BA69F368926847F28871C0F60001206166
:102890000091023A18464FF4A8712B46FEF7E0F873
:1028A0002023E06083F3118840F62823C2F200035E
:1028B0009A6947F210539268C0F6000347F2847198
:1028C0009868C0F6000142F2F1730091033AC0F635
:1028D00000034FF4A871FEF783F841F22413C2F20B
:1028E00000039860002383F3118841F22413C2F29D
:1028F00000039868FEF714F9FFF7CAFC47F29071DD
:10290000C0F60001012003B0BDE8F040FFF760BC55
:10291000F8B540F62824C2F20004A3699D686E1C35
:102920003046FEF7E5F8B0EB050CDCF10001074698
:1029300051EB0C010120FFF733FC00B1F8BDA36996
:1029400002209968B6EB010EDEF1000151EB0E0199
:10295000FFF726FC0028F1D13846FEF7C9F8301AF7
:10296000414241410320FFF71BFC0028E6D1A36947
:10297000042099684A1B51425141FFF711FC00287D
:10298000DCD1202383F31188A269002391680231EE
:10299000916083F3118840F62824C2F20004A369F1
:1029A000AF1C99680520CB1B59425941FFF7F8FB32
:1029B0000028C3D13046FEF79BF8B0EB050CDCF1E4
:1029C000000151EB0C010620FFF7EAFB0028B5D10E
:1029D000A36907209968B7EB010EDEF1000151EB06
:1029E0000E01FFF7DDFB0028A8D1A3690820196CB0
:1029F000771A79427941FFF7D3FB00289ED1EF1C6B
:102A00003846FEF775F8301A414241410920FFF778
:102A1000C7FB002892D1A3690A2099687A1A51420B
:102A20005141FFF7BDFB002888D1A3690B20196C29
:102A30007B1A59425941FFF7B3FB00287FF47EAF60
:102A4000202383F31188A26900239560156483F322
:102A5000118873E700000000000000000000000083
:102A600038B540F61824C2F20004FFF759FCE568B7
:102A70006420FEF775F805F1640105F16502012097
:102A8000FFF7D6FB00B138BDE5686420FEF768F8B3
:102A900005F1640105F165020220FFF7C9FB00287A
:102AA000F1D1E5684FF47A70FEF75AF805F57A71BE
:102AB00005F2E9320320FFF7BBFB0028E3D1E4680D
:102AC00004F164052846FEF75BF8294604F1650227
:102AD0000420BDE83840FFF7ABBB00BF000000009A
:102AE0002DE9F04140F62825C2F20005AB6947F216
:102AF0001056C0F600069A68D6F8008047F28C7728
:102B000084B0C0F6000742F6A1430532C0F60003C8
:102B10004FF4A87140460097FDF7A2FFAB6941F260
:102B200024149A68736847F28871C2F20004039310
:102B3000C0F6000142F6A143206001320091C0F6C8
:102B400000034FF4A8710398FDF78AFFB268AB69E0
:102B5000039247F284719A68C0F6000142F6A143DD
:102B6000606003320091C0F600034FF4A87103982F
:102B7000FDF776FFF268AB69039247F280719A68BD
:102B8000C0F6000142F6A143A06004320091C0F6F5
:102B900000034FF4A8710398FDF762FFAB69366933
:102BA0009A6847F29471C0F6000142F6A1430232DE
:102BB000C0F60003E060009130464FF4A871FDF7C5
:102BC0004FFF206140F60000C2F20000FEF790F9CE
:102BD00040F60000C2F20000FEF78AF940F600005D
:102BE000C2F20000FEF784F940F60000C2F20000D5
:102BF000FEF77EF940F60000C2F20000FEF778F919
:102C0000FFF746FB47F29071C0F600010120FFF785
:102C1000DFFA10B104B0BDE8F081AA6942F6A14321
:102C20009268404605320097C0F600034FF4A87141
:102C3000FDF716FF2023206083F3118840F6000083
:102C4000C2F200000221FEF78BF9FDF779FE0023A6
:102C500083F31188FFF71CFB40F60003C2F2000368
:102C6000996802204B1E5942594104B0BDE8F04119
:102C7000FFF796BA0000000000000000000000000E
:102C800010B540F60004C2F200042046FEF7E8F852
:102C90002046FEF72DF9002010BD00BF0000000007
:102CA00010B5044640F60000C2F20000FEF7D8F866
:102CB0002078FFF75DFA002010BD00BF0000000083
:102CC00040F60000C2F200000021FEF779B800BF14
:102CD00040F60000C2F200000021FEF771B800BF0C
:102CE00040F60000C2F200000021FEF769B800BF04
:102CF00008B53220FDF734FF202383F3118840F616
:102D00000000C2F20000FEF713F9FDF719FE0023E0
:102D100083F31188002008BD0000000000000000BF
:102D200008B5202383F311888368002B06DDFDF7A7
:102D300007FE002383F31188002008BDFEF7F8F892
:102D4000F5E700BF000000000000000000000000E8
:102D500000B587B003A80021FEF732F803A80021D0
:102D6000FEF74EF8059901200029CCBF0021012172
:102D7000FFF716FA10B107B05DF804FB40F6282300
:102D8000C2F200039A6947F210539268C0F600033A
:102D9000186803A942F62153013A0091C0F60003D6
:102DA0004FF4A871FDF75CFE41F22413C2F2000358
:102DB000186003A8FEF754F8059902200029CCBF3B
:102DC00000210121FFF7ECF90028D4D1202383F35F
:102DD0001188059B002B37DDFDF7B2FD002383F33F
:102DE0001188059903200029D4BF00210121FFF794
:102DF000D7F90028BFD105990420B1F1010EDEF109
:102E0000000151EB0E01FFF7CBF90028B3D12023CD
:102E100083F31188059B002B1ADDFDF791FD00233C
:102E200083F31188059903200029D4BF00210121D3
:102E3000FFF7B6F900289ED1059905204A1E514298
:102E40005141FFF7ADF996E703A8FEF771F8C3E724
:102E500003A8FEF76DF8E0E70000000000000000A6
:102E600070B540F60004C2F2000482B00021204692
:102E7000FEF72EF8B0F1FF36714271410120FFF7E5
:102E80008FF908B102B070BD216802200D1B6942A4
:102E90006941FFF785F90028F4D1A1680320D1F139
:102EA000010138BF0021FFF77BF90028EAD140F685
:102EB0002823C2F200039A6947F21053C0F60003B8
:102EC0001968926842F6F143013A0090C0F6000397
:102ED00008464FF4A871FDF7C3FD41F22413C2F276
:102EE000000318604FF4FA712046FDF7F1FF054624
:102EF000FFF7CEF9D5F1010138BF00210420FFF71B
:102F00004FF90028BED1216805200A1B51425141CA
:102F1000FFF746F90028B5D1A1680620D1F10101DB
:102F200038BF0021FFF73CF90028ABD1FFF7F8F9D3
:102F300040F61823C2F20003DE6841252846FFF759
:102F400017F940F600004FF4FA71C2F20000FDF7E5
:102F5000BFFFB0F1FF33594259410720FFF720F975
:102F600000288FD121680820B1EB040CDCF10001AE
:102F700051EB0C01FFF714F9002883D1A168092057
:102F8000D1F1010138BF0021FFF70AF90135EDB297
:102F900000287FF477AF462DD0D147F29071C0F66C
:102FA00000010A20FFF714F900287FF46BAF0B2013
:102FB00006F6C41106F6C91202B0BDE87040FFF76C
:102FC00037B900BF00000000000000000000000052
:102FD00010B540F62823C2F200039A6947F2105355
:102FE0009268C0F6000382B01868002142F681435F
:102FF00001320091C0F600034FF4A871FDF730FDD7
:1030000040F6000441F22413C2F20004C2F20003AD
:10301000186021462046FDF7BBFF21680120B1EB77
:10302000040CDCF1000151EB0C01FFF7B9F808B119
:1030300002B010BDA1680220D1F1010138BF00210A
:10304000FFF7AEF80028F3D121462046FDF7A0FF98
:1030500021680320B1EB040EDEF1000151EB0E01FB
:10306000FFF79EF80028E3D1A1680420D1F1010107
:1030700038BF002102B0BDE81040FFF791B800BF93
:10308000F0B540F62827C2F20007BB6940F60C00F5
:1030900085B0C2F200009E6847F21055FEF720F896
:1030A00047F29471C0F60005C0F6000143F2911397
:1030B0002868721C0091C0F600034FF4A871FDF758
:1030C000CFFC6B6841F2241447F28071C2F2000415
:1030D0000393C0F6000143F291132060B21C0091EB
:1030E000C0F600034FF4A8710398FDF7B9FCAB6874
:1030F00047F284710393C0F6000143F291136060BC
:10310000F21C0091C0F600034FF4A8710398FDF77C
:10311000A7FCEB6847F288710393C0F6000143F205
:103120009113A060321D0091C0F600034FF4A87106
:103130000398FDF795FC2D6947F28C71C0F60001EC
:1031400043F29113C0F60003721DE060009128461F
:103150004FF4A871FDF784FC2061FDF7F1FFFFF744
:1031600097F8BB69012099688B1B59425941FFF7B9
:1031700017F808B105B0F0BD47F29071C0F6000134
:10318000022005B0BDE8F040FFF722B800000000C3
:1031900010B5044640F60C00C2F20000FDF7A0FF97
:1031A0002078FEF7E5FFFDF7CBFF002010BD00BF44
:1031B00010B5044640F61C00C2F20000FDF790FF77
:1031C0002078FEF7D5FFFDF7BBFF002010BD00BF44
:1031D00040F60C00C2F20000FDF712BF0000000034
:1031E00040F60C00C2F20000FDF70ABF000000002C
:1031F00008B540F60C00C2F20000FDF701FFBDE883
:10320000084040F61C00C2F20000FDF7F9BE00BF06
:1032100008B540F60C00C2F20000FDF7F1FEBDE873
:10322000084040F61C00C2F20000FDF7E9BE00BFF6
:1032300040F60C00C2F20000FDF7E2BE0000000004
:103240002DE9F04140F6282682B0C2F20006FFF7D1
:1032500067F8B36947F210559A68C0F60005002771
:1032600040F6182443F28143013AC2F20004009769
:10327000C0F600034FF4A8712868D4F80C80FDF75D
:10328000EFFBB36969689A6841F22414C2F2000442
:1032900043F261432060023A0846C0F600034FF44F
:1032A000A8710097FDF7DCFBB369A9689A6843F23F
:1032B00001436060033A0846C0F600034FF4A8716A
:1032C0000097FDF7CDFBA060FEF7E2FF47F6101177
:1032D000C0F600010120FEF77BFF10B102B0BDE88F
:1032E000F081022008F1640108F1690202B0BDE832
:1032F000F041FEF79DBF00BF00000000000000008D
:103300002DE9F04140F6282682B0C2F20006FFF710
:1033100007F8B36947F210559A68C0F60005002710
:1033200040F6182443F23143053AC2F200040097F4
:10333000C0F600034FF4A8712868D4F80C80FDF79C
:103340008FFBB36969689A6841F22414C2F20004E1
:1033500043F231532060043A0846C0F600034FF4AC
:10336000A8710097FDF77CFBB369A9689A6843F2DE
:1033700001536060033A0846C0F600034FF4A87199
:103380000097FDF76DFBB369E9689A6843F2E14382
:10339000A060023A0846C0F600034FF4A8710097F7
:1033A000FDF75EFBB36929699A6843F2B143E060B7
:1033B000013A0846C0F600034FF4A8710097FDF7E4
:1033C0004FFB2061FEF764FF47F29071C0F60001E9
:1033D0000120FEF7FDFE10B102B0BDE8F081022031
:1033E00008F16E0108F1730202B0BDE8F041FEF78A
:1033F0001FBF00BF00000000000000000000000030
:1034000008B540F60C00C2F20000FDF769FE282066
:10341000FEF756FFFDF794FE0A20FEF751FF43200A
:10342000FEF7A6FE002008BD00000000000000001E
:1034300008B540F60C00C2F20000FDF751FE1E2058
:10344000FEF73EFFFDF77CFE4520FEF791FE0020D3
:1034500008BD00BF000000000000000000000000E8
:1034600008B51420FDF77CFB2820FEF729FF422039
:10347000FEF77EFE002008BD0000000000000000F6
:1034800008B52820FDF76CFB40F60C00C2F20000E6
:10349000FDF726FE0A20FEF713FFFDF751FE41203F
:1034A000FEF766FE002008BD0000000000000000DE
:1034B00008B53220FDF754FB40F61C00C2F20000B4
:1034C000FDF70EFE0A20FEF7FBFEFDF739FE412058
:1034D000FEF74EFE002008BD0000000000000000C6
:1034E00008B52820FDF73CFB1420FEF7E9FE42203A
:1034F000FEF73EFE002008BD0000000000000000B6
:1035000008B51420FDF72CFB40F61C00C2F20000A9
:10351000FDF7E6FD0A20FEF7D3FEFDF711FE43207E
:10352000FEF726FE002008BD00000000000000009D
:1035300008B50A20FDF714FB40F61C00C2F200009B
:10354000FDF7CEFD1420FEF7BBFE40F60C00C2F2E4
:103550000000FDF7C5FD0A20FEF7B2FEFDF7F0FD05
:103560000A20FEF7ADFEFDF7EBFD4420FEF700FE5E
:10357000002008BD00000000000000000000000066
:1035800008B59620FDF7ECFA40F60C00C2F20000F8
:10359000FDF7A6FDFDF7D4FD002008BD00000000EA
:1035A00008B53220FDF7DCFA40F61C00C2F200003C
:1035B000FDF796FDFDF7C4FD002008BD00000000EA
:1035C0002DE9F04640F62824C2F20004A36947F230
:1035D0001056C0F600069F68336885B047F28871C0
:1035E0000393C0F6000107F1010943F2A1534A46D3
:1035F0000091C0F600034FF4A8710398FDF730FA6C
:1036000041F22415766847F28C71C2F20005C0F6CB
:10361000000107F1020A43F281532860C0F600035B
:103620005246009130464FF4A871FDF719FA6860D0
:1036300040F61C00C2F20000FDF752FDA369012014
:103640009968CB1B59425941FEF7AAFD10B105B04C
:10365000BDE8F0866420FDF783FAA369022099682B
:10366000B1EB090CDCF1000151EB0C01FEF798FD08
:103670000028ECD140F60C00C2F20000FDF730FD4E
:10368000A36903209968B1EB090EDEF1000151EB4B
:103690000E01FEF785FD0028D9D16420FDF760FA00
:1036A000A36904209968B1EB0A0251425141FEF727
:1036B00077FD0028CBD1FDF743FDA369052099686C
:1036C000B1EB090359425941FEF76AFD0028BED10A
:1036D0006420FDF745FAA36906209968B1EB090C4F
:1036E000DCF1000151EB0C01FEF75AFD0028AED1D0
:1036F000FDF78EFDA36907209968B1EB070EDEF197
:10370000000151EB0E01FEF74BFD00289FD1FEF7A3
:10371000BFFD47F28072C0F6000243F2A15300924F
:10372000C0F600034FF4A8714A460398FDF798F9D4
:1037300047F28472C0F6000243F281532860C0F65B
:1037400000034FF4A871009230465246FDF788F905
:10375000686040F61C00C2F20000FDF7C1FCA369DE
:1037600008209968CA1B51425141FEF719FD0028F3
:103770007FF46DAF6420FDF7F3F9A3690920996820
:10378000B1EB090359425941FEF70AFD00287FF4C5
:103790005EAF40F60C00C2F20000FDF7A1FCA36989
:1037A0000A209968B1EB090CDCF1000151EB0C0126
:1037B000FEF7F6FC00287FF44AAF6420FDF7D0F94D
:1037C000A3690B209968B1EB0A0EDEF1000151EB01
:1037D0000E01FEF7E5FC00287FF439AF202383F3C8
:1037E0001188FDF7E5FCFDF7ABF8002383F31188A2
:1037F000A3690C20996840F62824B1EB09067142B0
:103800007141C2F20004FEF7CBFC00287FF41FAF29
:103810006420FDF7A5F9A3690D209968B1EB0905AE
:1038200069426941FEF7BCFC00287FF410AFFDF748
:10383000EFFCA3690E209968CA1B51425141FEF763
:10384000AFFC00287FF403AF05B0BDE8F046FEF7FB
:103850001FBD00BF000000000000000000000000CD
:10386000F8B540F62825C2F2000540F60C04AB6915
:10387000C2F2000420469E68FDF742FC014601208A
:10388000FEF78EFC00B1F8BD2046FDF739FC80F054
:103890000101C9B20220FEF783FC0028F3D12023E6
:1038A00083F31188FDF784FC002383F311882168DA
:1038B00040F60C07B1EB040EDEF1000151EB0E01F6
:1038C0000320C2F20007FEF76BFC0028DBD1B968C9
:1038D0000420D1F1010138BF0021FEF761FC00286E
:1038E000D1D1AB69052099688C1B61426141FEF71B
:1038F00057FC0028C7D13846FDF7F2FBFDF788FCDE
:1039000039680620CA1B51425141FEF749FC002884
:10391000B9D1B9680720D1F1010138BF0021BDE854
:10392000F840FEF73DBC00BF0000000000000000B2
:10393000F0B540F62823C2F200039B6947F2105607
:103940009F6843F6312547F2947183B0C0F60006B4
:10395000C0F60005C0F600017A1C2B4600913068C5
:103960004FF4A871FDF77CF841F22414736847F214
:103970008071C2F20004C0F600012060BA1C009100
:1039800018464FF4A8712B46FDF76AF8B36847F262
:103990008471C0F600016060FA1C009118464FF473
:1039A000A8712B46FDF75CF8F36847F28871C0F602
:1039B0000001A0603A1D009118464FF4A8712B46F3
:1039C000FDF74EF8336947F28C71C0F60001E060F4
:1039D0007A1D009118464FF4A8712B46FDF740F868
:1039E0002023206183F3118840F62C04C2F20004E6
:1039F0002046FDF755FC2046FDF752FC2046FDF71A
:103A00004FFC2046FDF74CFC2046FDF749FCFCF737
:103A100097FF002383F31188FEF73AFC47F2907179
:103A2000C0F60001012003B0BDE8F040FEF7D0BBB6
:103A300010B5044640F60C00C2F20000FDF750FB42
:103A400040F62C00C2F20000FDF78AFC2078FEF759
:103A50008FFBFDF775FB002010BD00BF00000000CC
:103A600008B540F62C00C2F20000FDF7F9FBBDE8F6
:103A7000084040F60C00C2F20000FDF7C1BA00BFDA
:103A800008B540F62C00C2F20000FDF7E9FBBDE8E6
:103A9000084040F60C00C2F20000FDF7B1BA00BFCA
:103AA00008B540F62C00C2F20000FDF7D9FB40F645
:103AB0000C00C2F20000FDF7A3FABDE8084040F692
:103AC0001C00C2F20000FDF79BBA00BF000000001E
:103AD000F0B540F62823C2F200039B6947F2105666
:103AE0009F6843F6312547F2947183B0C0F6000613
:103AF000C0F60005C0F600017A1C2B460091306824
:103B00004FF4A871FCF7ACFF41F22414736847F23C
:103B10008071C2F20004C0F600012060BA1C00915E
:103B200018464FF4A8712B46FCF79AFFB36847F28A
:103B30008471C0F600016060FA1C009118464FF4D1
:103B4000A8712B46FCF78CFFF36847F28871C0F62A
:103B50000001A0603A1D009118464FF4A8712B4651
:103B6000FCF77EFF336947F28C71C0F600017A1DC5
:103B7000E060009118464FF4A8712B46FCF770FFE7
:103B8000206140F62C00C2F20000FDF7B1FBFEF709
:103B90007FFB47F29071C0F60001012003B0BDE841
:103BA000F040FEF715BB00BF000000000000000061
:103BB000F0B540F62823C2F200039B6947F2105586
:103BC0009E6847F28C7183B0C0F60005C0F6000114
:103BD00043F66143721C00912868C0F600034FF45D
:103BE000A871FCF73DFF41F224146F6847F284711D
:103BF000C2F20004C0F6000143F631232060B21C7B
:103C000000913846C0F600034FF4A871FCF728FF76
:103C1000AD6847F28871C0F6000143F2B113F21C9F
:103C2000C0F600036060009128464FF4A871FCF7CD
:103C300017FF40F62C05C2F20005A0602846FDF7EC
:103C400017FB2846FDF714FBFEF722FB47F6101181
:103C5000C0F60001012003B0BDE8F040FEF7B8BA9D
:103C600010B5044640F61C00C2F20000FDF738FA19
:103C700040F60C00C2F20000FDF732FA40F62C00CC
:103C80004FF0FF31C2F20000FDF7A2FB2078FEF7F3
:103C90006FFAFDF755FAFDF753FA002010BD00BF8B
:103CA00010B540F62823C2F20003996947F2105379
:103CB0008A68C0F6000382B0186843F631530132B7
:103CC0000091C0F600034FF4A871FCF7C9FE41F261
:103CD0002413C2F200031860FDF75AFD446B21461D
:103CE000FDF776FDE0B2FEF743FAFDF751FD446BB8
:103CF0002146FDF76DFDE0B2FEF73AFAFDF748FD0B
:103D0000446B2146FDF764FDE0B2FEF731FA47F659
:103D10001011C0F60001012002B0BDE81040FEF70E
:103D200057BA00BF000000000000000000000000C3
:103D300010B541210446FDF70BFD20464221FDF759
:103D400007FD20464321FDF703FD002010BD00BF05
:103D500070B540F63405C2F20005696A82B0B1F16F
:103D6000050EDEF1000151EB0E010120FEF718FAFD
:103D700028BB422440F634002146C2F200004FF036
:103D8000FF32FDF78DFDD0F1010138BF0021022087
:103D90000134FEF705FA90B9462CEBD140F6340019
:103DA0004121C2F200004FF0FF32FDF7C9FDD0F112
:103DB000010138BF00210320FEF7F2F908B102B07B
:103DC00070BD40F634005821C2F200000122FDF718
:103DD00067FDB0F1FF36714271410420FEF7E0F952
:103DE0000028ECD1202383F3118840F634005821B9
:103DF000C2F20000FDF764FD0023014683F3118841
:103E0000B1F1FF34614261410520FEF7C9F9002894
:103E1000D5D140F6340058210122C2F20000FDF74E
:103E20008FFDB0F1FF32514251410620FEF7B8F943
:103E30000028C4D1202383F3118840F63400582190
:103E4000C2F20000FDF78CFD0023014683F31188C8
:103E5000B1F1FF33594259410720FEF7A1F900287B
:103E6000ADD1202383F31188696A0820D1F10101C3
:103E700038BF0021FEF794F9034618B1002383F3FD
:103E800011889CE783F31188202383F31188A969A3
:103E90000920B1F1050CDCF1000151EB0C01FEF73A
:103EA0007FF903460028E9D183F31188202383F3A7
:103EB0001188E968AB680A20B1EB030EDEF100015E
:103EC00051EB0E01FEF76CF900230028D7D183F3E4
:103ED0001188052605E09DF80400FEF749F9013E2A
:103EE00013D040F63404C2F2000401A920464FF07A
:103EF000FF32FDF775FDD0F1010138BF00210B2025
:103F0000FEF74EF90028E6D059E747F29071C0F667
:103F100000010C20FEF75CF900287FF450AF472128
:103F200020464FF0FF32FDF7BBFCD0F1010138BF56
:103F300000210D20FEF734F900287FF440AF01A9DD
:103F400020464FF0FF32FDF74BFDD0F1010138BFA5
:103F500000210E20FEF724F900287FF430AF2168FD
:103F6000A3680F20CE1A71427141FEF719F900289B
:103F70007FF425AF2168E3681020CA1A51425141ED
:103F8000FEF70EF900287FF41AAF01A9204601229E
:103F9000FDF726FDB0F1FF33594259411120FEF7DC
:103FA000FFF800287FF40BAF202383F3118840F63D
:103FB000340001A9C2F20000FDF722FD00230146F2
:103FC00083F31188B1F1FF3CDCF1000151EB0C01EE
:103FD0001220FEF7E5F800287FF4F1AE202383F3EA
:103FE0001188696A1320B1F1050EDEF1000151EB71
:103FF0000E01FEF7D5F8002300287FF440AF83F3CD
:104000001188202383F31188A9691420D1F10101BB
:1040100038BF0021FEF7C4F8034600287FF42EAF16
:1040200083F31188202383F31188E968AB68152096
:10403000CE1A71427141FEF7B3F8034600287FF4AF
:104040001DAF83F31188202383F3118840F63400D9
:104050004121C2F20000FDF733FCD0F1010138BF6D
:1040600000211620FEF79CF800287FF4A8AE40F649
:1040700034004221C2F20000FDF722FCD0F1010120
:1040800038BF00211720FEF78BF800287FF497AE89
:1040900040F634004321C2F20000FDF711FCD0F1DC
:1040A000010138BF00211820FEF77AF800287FF4BC
:1040B00086AE40F634004421C2F20000FDF700FC59
:1040C000D0F1010138BF00211920FEF769F804463C
:1040D00000287FF474AE40F634004521C2F200009F
:1040E000FDF7EEFB2346014683F31188D1F1010170
:1040F00038BF00211A20FEF753F800287FF45FAE86
:10410000E968AB681B20CC1A61426141FEF748F8B0
:1041100000287FF454AE0524202383F3118840F651
:10412000340001A9C2F20000FDF76AFC0023014639
:1041300083F31188D1F1010138BF00211C20FEF763
:104140002FF800287FF43BAE9DF80400FEF710F82E
:10415000013CE1D147F29071C0F600011D20FEF74D
:1041600037F800287FF42BAE202383F31188696A87
:104170001E204A1F51425141FEF712F80346002803
:104180007FF47CAE83F31188202383F31188A9691F
:104190001F20D1F1010138BF0021FEF701F80346CD
:1041A00000287FF46BAE83F31188E968AB682020A8
:1041B000CB1A59425941FDF7F3FF00287FF4FFADB8
:1041C000202383F3118840F634004521C2F2000019
:1041D000FDF7C6FBD0F1010138BF00212120FDF71A
:1041E000DFFF00287FF4EBAD40F634004421C2F23B
:1041F0000000FDF7B5FBD0F1010138BF00212220FE
:10420000FDF7CEFF00287FF4DAAD40F634004321FD
:10421000C2F20000FDF7A4FBD0F1010138BF00217C
:104220002320FDF7BDFF00287FF4C9AD40F6340020
:104230004221C2F20000FDF793FBD0F1010138BF2B
:1042400000212420FDF7ACFF00287FF4B8AD40F634
:1042500034004121C2F20000FDF782FB0023014639
:1042600083F31188D1F1010138BF00212520FDF72A
:1042700097FF00287FF4A3ADE968AB682620B1EB77
:10428000030CDCF1000151EB0C01FDF789FF002864
:104290007FF495AD0524202383F3118840F6340084
:1042A00001A9C2F20000FDF7ABFB0023014683F336
:1042B0001188D1F1010138BF00212720FDF770FFDF
:1042C00000287FF47CAD9DF80400FDF751FF013C10
:1042D000E1D147F29071C0F600012820FDF778FF88
:1042E00000287FF46CAD202383F31188696A2920AC
:1042F000B1F1050EDEF1000151EB0E01FDF750FFAB
:10430000034600287FF4BAAD83F31188202383F39A
:104310001188A9692A20D1F1010138BF0021FDF7D8
:104320003FFF034600287FF4A9AD83F31188E968B5
:10433000AB682B20CE1A71427141FDF731FF002886
:104340007FF43DAD40F63400C2F20000FDF768FA9C
:10435000202383F31188696A2C204C1F614261413C
:10436000FDF71EFF034600287FF488AD83F3118814
:10437000202383F31188A9692D20D1F1010138BFD1
:104380000021FDF70DFF034600287FF477AD83F38E
:104390001188202383F311882968AB682E20CA1A5C
:1043A00051425141FDF7FCFE034600287FF466AD03
:1043B00083F31188202383F311882968EB682F2069
:1043C000CB1A59425941FDF7EBFE57E500000000BA
:1043D00040F6340040F67021C2F20000C2F2000143
:1043E0000522FDF705BA00BF000000000000000034
:1043F00010B540F65C0488B0C2F20004204669465D
:1044000001222460FCF7F4FF204604A90222FCF7F5
:10441000EFFF21680120091B18BF0121FDF7C0FE35
:1044200008B108B010BD69462046FCF7F9FF2168C5
:104430000220091B18BF0121FDF7B2FE0028F0D1B0
:1044400004A92046FCF7ECFF216803200B1B59420E
:104450005941FDF7A5FE0028E3D147F67030C0F6BC
:1044600000000721FDF76CF847F61011C0F60001B7
:104470000420FDF7ADFED4E70000000000000000BE
:104480004320FDF775BE00BF0000000000000000E3
:104490004220FDF76DBE00BF0000000000000000DC
:1044A0004120FDF765BE00BF0000000000000000D5
:1044B0004FF0FF30FCF7CCBF000000000000000010
:1044C0004FF0FF30FCF7C4BF000000000000000008
:1044D0004FF0FF30FCF7BCBF000000000000000000
:1044E0002DE9F04305208DB0FCF7CAFF4FF0FF30F7
:1044F000FDF73EF8B0F10109D9F1000151EB0901D6
:104500000120FDF74DFE10B10DB0BDE8F0834FF076
:10451000FF30FDF72DF8B0F10408D8F1000151EBA0
:1045200008010220FDF73CFE0028EDD14FF0FF30DE
:10453000FCF78EFFD0F1010138BF00210320FDF709
:104540002FFE0028E0D140F62824FDF7E9FEC2F254
:10455000000447F21053A169C0F600031B688A6883
:10456000039340F6182644F29173013A0091C0F685
:1045700000034FF4A8710398C2F20006F768FCF735
:104580006FFA41F22415C2F2000528604FF0FF30A7
:10459000FCF7EEFF07F13201814607F137020420F4
:1045A000FDF746FE0028AFD1B9F1010CDCF10001A6
:1045B00051EB0C010520FDF7F3FD0028A4D14FF0CD
:1045C000FF30FCF745FFD0F1010138BF0021062084
:1045D000FDF7E6FD002897D1FDF75AFE0520FCF710
:1045E0004FFF4FF0FF30FCF7E3FFB0F1050EDEF1B7
:1045F000000151EB0E010720FDF7D2FD002883D109
:104600004FF0FF30FCF724FFD0F1010138BF00214B
:104610000820FDF7C5FD00287FF476AFFDF780FE8A
:10462000A16944F291738A68C0F60003013A0091CF
:1046300003984FF4A871D6F80C80FCF711FA2860A3
:104640004FF0FF30FCF7B4FF08F13201814608F16A
:1046500037020920FDF7ECFD00287FF455AFB9F1D2
:104660000107794279410A20FDF79AFD00287FF47D
:104670004BAF4FF0FF30FCF7EBFED0F1010138BF3C
:1046800000210B20FDF78CFD00287FF43DAF40F6A4
:104690005C09C2F2000940F66008FDF7F9FDC2F2BC
:1046A0000008484604A90122C9F80090C8F8008013
:1046B000FCF79EFE08A904224046FCF799FEFDF790
:1046C0002FFEA36947F28C719A68C0F6000144F28C
:1046D0006173013A0091C0F600034FF4A87103988A
:1046E000F468FCF7BDF928600520FCF781FF04F1B0
:1046F000320104F137020C20FDF79AFD00287FF407
:1047000003AF4FF0FF30FCF7A3FED0F1010138BF3B
:1047100000210D20FDF744FD00287FF4F5AEFDF7E4
:10472000B7FD484604A9FCF77BFE404608A9FCF704
:1047300077FED9F800100E20B1EB09046142614107
:10474000FDF72EFD00287FF4DFAED8F800100F2013
:10475000B1EB080251425141FDF722FDD4E600BF02
:1047600008B540F65C000021C2F20000FCF7D8FE5C
:104770003220FCF7F5F940F66000C2F2000000219B
:10478000FCF7CEFE002008BD000000000000000085
:1047900010B504463220FCF7E3F920460121FCF76E
:1047A000AFFE002010BD00BF0000000000000000B0
:1047B00008B500214FF0FF30FCF73AFFD0F10101BE
:1047C00038BF00210120FDF7EBFC00B108BD014618
:1047D0004FF0FF30FCF75CFFD0F1010138BF002142
:1047E0000220FDF7DDFC0028F0D101464FF0FF303C
:1047F000FCF77EFFD0F1010138BF00210320FDF757
:10480000CFFC0028E2D10A214FF0FF30FCF710FF67
:10481000D0F1010138BF00210420FDF7C1FC0028C0
:10482000D4D10A214FF0FF30FCF732FFD0F1010163
:1048300038BF00210520FDF7B3FC0028C6D10A21AE
:104840004FF0FF30FCF754FFBDE80840D0F1010104
:1048500038BF00210620FDF7A3BC00BF0000000008
:1048600070B582B0FDF7B4FA01A90020FDF778FB1E
:1048700010210020FDF7DCFA011C044618BF0121BD
:104880000120FDF78DFC054608B102B070BD204641
:10489000FDF716FB6FF0FF012846FDF7C9FAD0F1CE
:1048A000010138BF00210220FDF77AFC0028ECD17D
:1048B00041F2501001A9C2F20000FDF751FB41F294
:1048C00050101021C2F20000FDF7B2FA054641F285
:1048D00050101021C2F20000FDF7AAFA044641F27E
:1048E00050101021C2F20000FDF7A2FA0646284639
:1048F000FDF7E6FA2046FDF7E3FA3046FDF7E0FA69
:1049000041F250106946C2F20000FDF729FB421E39
:10491000514251410320FDF743FC0028B5D141F23B
:1049200050101021C2F20000FDF782FA044641F255
:1049300050101021C2F20000FDF77AFA054641F24C
:1049400050101021C2F20000FDF772FAFDF7B8FA1C
:104950002846FDF7B5FA2046FDF7B2FA41F25010AD
:104960006946C2F20000FDF7FBFA431E5942594165
:104970000420FDF715FC002887D141F250101121C9
:10498000C2F20000FDF754FA044641F25010102123
:10499000C2F20000FDF74CFA05462046FDF790FAFA
:1049A00041F250106946C2F20000FDF7D9FAB0F1A9
:1049B000020CDCF1000151EB0C010520FDF7F0FBCE
:1049C00000287FF462AF41F250101021C2F20000C3
:1049D000FDF72EFA044641F250106946C2F200007B
:1049E000FDF7BEFA012808BF01460CD041F2501075
:1049F0006946C2F20000FDF7B3FAB0F1020EDEF133
:104A0000000151EB0E010620FDF7CAFB00287FF4E0
:104A10003CAF2846FDF754FA2046FDF751FA41F223
:104A200050106946C2F20000FDF79AFA461E714224
:104A300071410720FDF7B4FB00287FF426AF41F257
:104A400050101021C2F20000FDF7F2F9054641F2C4
:104A500050101021C2F20000FDF7EAF90446284682
:104A6000FDF72EFA41F250106946C2F20000FDF740
:104A700077FA851E694269410820FDF791FB0028FD
:104A80007FF403AF41F250102021C2F20000FDF785
:104A9000CFF9FDF715FA2046FDF712FA41F2501052
:104AA0006946C2F20000FDF75BFA0138414241411C
:104AB0000920FDF775FB00287FF4E7AE41F25010A6
:104AC0006946C2F20000FDF74BFA41F2501000991E
:104AD000C2F20000FDF7ACF9044641F250106946FD
:104AE000C2F20000FDF73CFAD0F1010138BF00210D
:104AF0000A20FDF755FB00287FF4C7AE2046FDF7DE
:104B0000DFF941F250106946C2F20000FDF728FAC1
:104B1000421E514251410B20FDF742FB00287FF419
:104B2000B4AE9DE80A00CB1A594259410C20FDF75A
:104B300037FBAAE6000000000000000000000000B3
:104B400041F2501040F67021C2F20000C2F20001A2
:104B50004FF4D262FDF75CB90000000000000000D5
:104B6000002070470000000000000000000000006E
:104B700040F66400C2F200004FF4A8710022FDF775
:104B800017BA00BF00000000000000000000000095
:104B900038B547F21053C0F600031D6840F66400B4
:104BA0002946C2F200000522FDF70AFA052440F664
:104BB0006400C2F20000FDF71BFA011C18BF0121BE
:104BC0000120FDF7EDFA002846D1013CEFD140F677
:104BD0006400C2F20000FDF70BFAD0F1010138BF0A
:104BE00000210220FDF7DCFAB0BB47F21054C0F6FA
:104BF000000440F664002946C2F2000004F11005EA
:104C0000FDF70EFAAC4209D054F8041F40F66400D8
:104C1000C2F20000FDF704FAAC42F5D1052440F6DB
:104C20006400C2F20000FDF7E3F9011C18BF012186
:104C30000320FDF7B5FA78B9013CF0D140F66400E5
:104C4000C2F20000FDF7D4F9D0F1010138BF002114
:104C50000420FDF7A5FA00B138BD40F6640044F623
:104C600061321021C2F20000C0F60002FDF7A0F987
:104C700040F66400C2F20000FDF7BAF9BDE8384022
:104C8000D0F1010138BF00210520FDF789BA00BF2E
:104C900070B540F62823C2F2000384B09B6941F24C
:104CA000801003A9C2F200009D68FDF759F947F290
:104CB0008C71C0F6000141F2801044F6C1536A1EA7
:104CC0000091C0F600034FF4A871C2F20000FCF797
:104CD0000FF841F22414C2F2000447F288712060F8
:104CE000C0F6000141F2801044F6C153AA1EC0F67E
:104CF00000030091C2F200004FF4A871FBF7F8FF27
:104D0000606041F2801002A9C2F20000FDF728F9AC
:104D100041F280100299C2F20000FDF789F847F2D3
:104D200084710646C0F6000141F2801044F6C1537A
:104D3000EA1E0091C0F600034FF4A871C2F2000011
:104D4000FBF7D6FFA0603046FDF7BAF8216821B125
:104D5000616811B1A16849B300210120FDF720FA73
:104D600008B104B070BDFDF793FA47F65041C0F6A4
:104D700000010220FDF72CFA0028F2D141F2801048
:104D800002A9C2F20000FDF7EBF8421E5142514168
:104D90000320FDF705FA0028E3D10299039B0420C4
:104DA000CB1A59425941FDF7FBF9DAE7E368002BCA
:104DB000D3D12169D1F1010138BF0021CDE700BF76
:104DC00008B50078FDF7D4F9002008BD0000000008
:104DD00041F2801040F67021C2F20000C2F20001E0
:104DE0004FF4D262FDF714B800000000000000008C
:104DF00041F2801040F67021C2F20000C2F20001C0
:104E00004FF4D262FDF704B800000000000000007B
:104E100040F62823C2F200039B6970B54E4C9D6892
:104E200004F1100654F8041F41F27010C2F20000A1
:104E3000FDF7F6F8B442F5D141F2701044F6C152D4
:104E400047F28C73C0F60002C0F60003691EC2F27E
:104E50000000FBF76DFF41F22414C2F20004206051
:104E600044F6C15241F2701047F28873C0F6000256
:104E7000C0F60003A91EC2F20000FBF759FF44F67A
:104E8000C152606047F2847341F27010C0F60002B4
:104E9000C0F60003E91EC2F20000FBF749FF44F62A
:104EA000C152A06047F2807341F27010C0F6000258
:104EB000C0F60003291FC2F20000FBF739FF44F6D9
:104EC000C152E06047F2947341F27010691FC2F260
:104ED0000000C0F60002C0F60003FBF729FF2168BE
:104EE000206149B1616839B1A16829B1E16819B19E
:104EF000D0F1010138BF00210120FDF751F900B1C7
:104F000070BDFDF7C5F947F65441C0F60001022017
:104F1000FDF75EF90028F3D1042441F27010C2F2CB
:104F20000000FDF765F8011C18BF01210320FDF703
:104F300037F90028E4D1013CEFD141F27010C2F200
:104F40000000FDF755F8BDE87040D0F1010138BF11
:104F500000210420FDF724B90C75000800000000B2
:104F600041F27010C2F200004FF4A8710022FDF768
:104F70001FB800BF0000000000000000000000009B
:104F800038B50546FBF7F4FE002403461846AB424D
:104F900008BF44F00104FBF7FBFE03460028F5D1EF
:104FA000204638BD000000000000000000000000A6
:104FB00010B540F62823C2F200039B6947F28C71BA
:104FC0009A6882B0C0F6000141F2801044F6C153E5
:104FD000013A0091C2F200004FF4A871C0F600033C
:104FE000FBF786FE817F044601200A1A5142514197
:104FF000FDF7D6F808B102B010BD2046FBF740FE21
:10500000A17F02200B1A59425941FDF7C9F8002827
:10501000F1D12046FBF744FEA17F0320B1F1010C42
:10502000DCF1000151EB0C01FDF7BAF80028E2D1E8
:105030002046FFF7A5FF01460420FDF7B1F8002840
:10504000D9D12046FFF79CFF01460520FDF7A8F8BF
:105050000028D0D12046FBF723FEA17F0620D1F106
:10506000010138BF0021FDF79BF80028C3D1217F43
:105070000720D1F1010138BF0021FDF791F8002888
:10508000B9D12046FFF77CFF01460820FDF788F8DC
:105090000028B0D12046FFF773FF01460920FDF735
:1050A0007FF80028A7D13220FBF75AFD217F0A2084
:1050B000B1F10E0EDEF1000151EB0E01FDF770F8BB
:1050C000002898D12046FFF75BFF01460B20FDF733
:1050D00067F800288FD12046FFF752FF80F00101CA
:1050E000C9B20C2002B0BDE81040FDF759B800BFAE
:1050F000704700BF0000000000000000000000003A
:1051000008B540F69400C821C2F20000FCF700FD8B
:10511000002008BD000000000000000000000000AA
:1051200000B547F21053C0F6000383B0196800229F
:1051300040F6940045F2F1030092C2F20000C0F67E
:1051400000030422FCF794FC03B05DF804FB00BFED
:1051500008B540F670000021C822C2F20000FCF73A
:1051600067FD002008BD00BF000000000000000037
:1051700000B547F21053C0F6000383B0196800224F
:1051800040F6700045F2F1030092C2F20000C0F652
:1051900000030422FCF724FD03B05DF804FB00BF0C
:1051A00070B5202382B083F3118840F69405C2F2D3
:1051B0000005A9680120D1F1010138BF0021FCF7E9
:1051C000EFFF064628BB034683F31188202383F3B1
:1051D00011884124214640F694000134C2F20000B7
:1051E000E4B2FCF76DFC452CF4D1002383F3118865
:1051F000202383F311886969AA6940F694039142D8
:10520000C2F2000300F0268131460220FCF7C8FFFD
:1052100020B1002383F3118802B070BD034683F3ED
:105220001188202383F3118840F694000021C2F2F4
:105230000000FCF745FC043014BF002101210320CD
:10524000FCF7AEFF0028E4D1034683F31188042461
:1052500040F694004FF0FF31C2F20000FCF758FC1A
:10526000C0B2FCF785FF013CF2D1202383F3118803
:10527000A9680420D1F1010138BF0021FCF790FF9B
:105280000028C6D1034683F3118847F65441C0F67F
:1052900000010520FCF79CFF0028BDD1202383F3EB
:1052A00011884124214640F694000134C2F20000E6
:1052B000E4B2FCF705FC452CF4D1002383F31188FC
:1052C00047F21054C0F6000440F694006168C2F240
:1052D00000000822FCF744FC061F714271410620C1
:1052E000FCF75EFF002897D1202383F31188A9687B
:1052F0000720D1F1010138BF0021FCF751FF002840
:1053000087D1034683F31188202383F31188412634
:10531000314640F694000136C2F20000F6B2FCF7C6
:10532000CFFB452EF4D1002383F31188666840F645
:10533000940031460222C2F20000FCF711FC023850
:10534000414241410820FCF72BFF034600287FF42F
:1053500063AF40F6940031460222C2F20000FCF72F
:10536000FFFB821E514251410920FCF719FF002822
:105370007FF452AF202383F31188A9680A20D1F16A
:10538000010138BF0021FCF70BFF034600287FF422
:1053900040AF83F31188202383F3118840F69400F3
:1053A0000021C2F20000FCF78BFB40F69400C2F231
:1053B0000000FCF76DFB002383F31188202383F3A7
:1053C0001188A9680B20D1F1010138BF0021FCF739
:1053D000E7FE034600287FF41CAF83F3118840F6F4
:1053E0002823C2F200039B6900219A6845F2011349
:1053F000009120680132C0F600034FF4A871FBF75A
:105400002FFB41F22413C2F200031860202383F320
:105410001188A9680C20D1F1010138BF0021FCF7E7
:10542000BFFE034600287FF4F4AE83F31188FCF737
:105430002FFF40F694000A21C2F20000FCF768FB3F
:10544000B0F1FF33594259410D2002B0BDE8704020
:10545000FCF7A6BE9E68003618BF0126D4E600BF42
:1054600070B5202382B083F3118840F67005C2F234
:1054700000056A69AB699A4218BF002100F01781E4
:105480000120FCF78DFE002843D1034683F31188E9
:105490004124214640F670000134C2F200004FF072
:1054A000FF32E4B2FCF7C4FB452CF2D1202383F396
:1054B0001188A9680220D1F1010138BF0021FCF751
:1054C0006FFE064628BB034683F31188042420237D
:1054D00083F3118840F67000C2F20000FCF7D8FB9D
:1054E000002383F31188C0B2FCF742FE013CEED1E9
:1054F000202383F311886969AA6940F670039142F9
:10550000C2F2000300F0D88031460320FCF748FEC9
:1055100020B1002383F3118802B070BD034683F3EA
:10552000118847F65441C0F600010420FCF750FEF4
:105530000028F1D1202383F3118840F67000C2F2D5
:105540000000FCF7A5FB033014BF0021012105205A
:10555000FCF726FE0028DCD1034683F3118847F2CE
:105560001054C0F6000440F670006168C2F20000FA
:1055700008220023FCF7B4FB061F7142714106208C
:10558000FCF70EFE0028C7D1202383F31188A968F9
:105590000720D1F1010138BF0021FCF701FE0028EE
:1055A000B7D1034683F3118840F62823C2F20003E3
:1055B0009B6900219A6845F25113009120680132DD
:1055C000C0F600034FF4A871FBF74AFA41F2241326
:1055D000C2F200031860202383F311882969EA6866
:1055E000AB688A1AD11A081F414241410820FCF7D2
:1055F000D7FD034600288CD183F31188FCF748FEC1
:10560000202383F3118840F67000C2F20000FCF7FB
:10561000F7FA002383F31188202383F31188EA68C3
:105620002969AB68891ACA1A514251410920FCF70D
:10563000B7FD034600287FF46CAF83F311886468DC
:1056400040F67000214602220023C2F20000FCF75F
:1056500047FB831E594259410A20FCF7A1FD03462E
:1056600000287FF459AF40F670002146C2F20000D6
:105670000222FCF735FBB0F1020CDCF1000151EB2A
:105680000C010B20FCF78CFD00287FF445AF202394
:1056900083F31188A9680C20D1F1010138BF0021E2
:1056A000FCF77EFD002360B183F3118834E7A9681D
:1056B000003118BF0121E3E69E68003618BF0126BD
:1056C00022E783F3118840F6700000210A22C2F21B
:1056D0000000FCF7ADFAB0F1FF3EDEF1000151EB46
:1056E0000E010D2002B0BDE87040FCF759BD00BFAF
:1056F000704700BF00000000000000000000000034
:10570000704700BF00000000000000000000000023
:1057100047F6B05010B5C0F6000047F6C054C0F6CA
:105720000004FCF7EDFC4FF4EA70FCF7B1FC2046F6
:10573000FCF7FEFC47F6C850C0F60000FCF7E0FCA2
:105740004820FCF7A5FC2046FCF7F2FC47F6D850B1
:10575000C0F60000FCF7D4FC1420FCF799FC2046AE
:10576000FCF7E6FC47F6E850C0F60000FCF7C8FC82
:105770000C20FCF78DFC2046FCF7DAFC47F6F850CD
:10578000C0F60000FCF7BCFC0420FCF781FC2046BE
:10579000FCF7CEFC47F60860C0F60000FCF7B0FC52
:1057A0001020FCF775FC2046FCF7C2FC47F6186099
:1057B000C0F60000FCF7A4FC1020FCF769FC2046B2
:1057C000FCF7B6FC47F62860C0F60000FCF798FC32
:1057D0000820FCF75DFC2046FCF7AAFC47F6386081
:1057E000C0F60000FCF78CFC2420FCF751FC20469E
:1057F000FCF79EFC47F64860C0F60000FCF780FC12
:105800002820FCF745FC2046BDE81040FCF790BC82
:1058100010B5FBF7BDFF446B2146FBF7D9FF002C09
:10582000F7D1204610BD00BF0000000000000000BE
:105830002DE9F04140F62823C2F200039A6947F2AD
:1058400010539268C0F6000382B002F101081F688D
:10585000FCF766FD4FF47A70FCF772FD002441F20C
:1058600005152646C2F2000545F2F163C0F60003B5
:10587000009638464FF4A8714246FBF7F1F82B78B2
:105880000134002BF0D047F65860C0F60000FCF75A
:1058900037FC2046FCF7FCFB47F66860C0F60000CA
:1058A00002B0BDE8F041FCF743BC00BF00000000BF
:1058B00070B50646FCF734FD4FF47A70FCF740FDF6
:1058C00041F20515C2F20005002430460121FBF724
:1058D0003FFF2B780134002BF7D030460021FBF737
:1058E00037FF204670BD00BF000000000000000030
:1058F00010B540F62823C2F200039A6947F210530C
:105900009268C0F6000382B01868002145F61103C2
:10591000013A0091C0F600034FF4A871FBF7A0F81C
:1059200041F22413C2F200031860FFF7C1FF0446DE
:10593000FCF7AEFC47F65860C0F60000FCF7E0FB51
:105940002046FCF7A5FB47F67460C0F60000FCF7A4
:10595000D7FB6000FCF79CFB47F68060C0F60000B8
:1059600002B0BDE81040FCF7E3BB00BF0000000040
:1059700010B540F62823C2F200039A6947F210538B
:105980009268C0F6000382B01868002145F6110342
:1059900001320091C0F600034FF4A871FBF760F8E4
:1059A00041F22413C2F200031860FFF781FF04469E
:1059B000FCF76EFC47F65860C0F60000FCF7A0FB51
:1059C0002046FCF765FB47F67460C0F60000FCF764
:1059D00097FB6000FCF75CFB47F68060C0F60000B8
:1059E00002B0BDE81040FCF7A3BB00BF0000000000
:1059F0002DE9F04140F62826C2F20006B36947F2CD
:105A000010559A6882B0C0F600054FF0000845F6C0
:105A1000110328680132CDF80080C0F600034FF46E
:105A2000A871FBF71DF8B36941F224149A6845F296
:105A3000F1676B68C2F20004C0F600072060023A0A
:105A4000CDF8008018464FF4A8713B46FBF708F8E4
:105A5000B269AB6892684FF4A8716060033ACDF800
:105A6000008018463B46FAF7FBFFB269EB68926884
:105A70004FF4A871A060043ACDF8008018463B4668
:105A8000FAF7EEFFB2692B6992684FF4A871053AF4
:105A9000E0601846CDF800803B46FAF7E1FF206150
:105AA0002068FFF705FF0446FCF7F2FB47F6586055
:105AB000C0F60000FCF724FB2046FCF7E9FA47F6A5
:105AC0007460C0F60000FCF71BFB6000FCF7E0FA16
:105AD00047F68060C0F6000002B0BDE8F041FCF778
